{
  "_format": "hh-sol-artifact-1",
  "contractName": "Meta",
  "sourceName": "contracts/MetaToken.sol",
  "abi": [
    {
      "inputs": [
        {
          "internalType": "uint256",
          "name": "initialSupply",
          "type": "uint256"
        },
        {
          "internalType": "string",
          "name": "intro",
          "type": "string"
        },
        {
          "internalType": "string",
          "name": "symbol",
          "type": "string"
        }
      ],
      "stateMutability": "nonpayable",
      "type": "constructor"
    },
    {
      "anonymous": false,
      "inputs": [
        {
          "indexed": true,
          "internalType": "address",
          "name": "owner",
          "type": "address"
        },
        {
          "indexed": true,
          "internalType": "address",
          "name": "spender",
          "type": "address"
        },
        {
          "indexed": false,
          "internalType": "uint256",
          "name": "value",
          "type": "uint256"
        }
      ],
      "name": "Approval",
      "type": "event"
    },
    {
      "anonymous": false,
      "inputs": [
        {
          "indexed": true,
          "internalType": "address",
          "name": "previousOwner",
          "type": "address"
        },
        {
          "indexed": true,
          "internalType": "address",
          "name": "newOwner",
          "type": "address"
        }
      ],
      "name": "OwnershipTransferred",
      "type": "event"
    },
    {
      "anonymous": false,
      "inputs": [
        {
          "indexed": true,
          "internalType": "address",
          "name": "from",
          "type": "address"
        },
        {
          "indexed": true,
          "internalType": "address",
          "name": "to",
          "type": "address"
        },
        {
          "indexed": false,
          "internalType": "uint256",
          "name": "value",
          "type": "uint256"
        }
      ],
      "name": "Transfer",
      "type": "event"
    },
    {
      "inputs": [
        {
          "internalType": "address",
          "name": "owner",
          "type": "address"
        },
        {
          "internalType": "address",
          "name": "spender",
          "type": "address"
        }
      ],
      "name": "allowance",
      "outputs": [
        {
          "internalType": "uint256",
          "name": "",
          "type": "uint256"
        }
      ],
      "stateMutability": "view",
      "type": "function"
    },
    {
      "inputs": [
        {
          "internalType": "address",
          "name": "spender",
          "type": "address"
        },
        {
          "internalType": "uint256",
          "name": "amount",
          "type": "uint256"
        }
      ],
      "name": "approve",
      "outputs": [
        {
          "internalType": "bool",
          "name": "",
          "type": "bool"
        }
      ],
      "stateMutability": "nonpayable",
      "type": "function"
    },
    {
      "inputs": [
        {
          "internalType": "address",
          "name": "account",
          "type": "address"
        }
      ],
      "name": "balanceOf",
      "outputs": [
        {
          "internalType": "uint256",
          "name": "",
          "type": "uint256"
        }
      ],
      "stateMutability": "view",
      "type": "function"
    },
    {
      "inputs": [],
      "name": "decimals",
      "outputs": [
        {
          "internalType": "uint8",
          "name": "",
          "type": "uint8"
        }
      ],
      "stateMutability": "view",
      "type": "function"
    },
    {
      "inputs": [
        {
          "internalType": "address",
          "name": "spender",
          "type": "address"
        },
        {
          "internalType": "uint256",
          "name": "subtractedValue",
          "type": "uint256"
        }
      ],
      "name": "decreaseAllowance",
      "outputs": [
        {
          "internalType": "bool",
          "name": "",
          "type": "bool"
        }
      ],
      "stateMutability": "nonpayable",
      "type": "function"
    },
    {
      "inputs": [],
      "name": "dexTaxFee",
      "outputs": [
        {
          "internalType": "uint256",
          "name": "",
          "type": "uint256"
        }
      ],
      "stateMutability": "view",
      "type": "function"
    },
    {
      "inputs": [
        {
          "internalType": "address",
          "name": "account",
          "type": "address"
        }
      ],
      "name": "excludeFromFee",
      "outputs": [],
      "stateMutability": "nonpayable",
      "type": "function"
    },
    {
      "inputs": [],
      "name": "hasSellFee",
      "outputs": [
        {
          "internalType": "bool",
          "name": "",
          "type": "bool"
        }
      ],
      "stateMutability": "view",
      "type": "function"
    },
    {
      "inputs": [
        {
          "internalType": "address",
          "name": "account",
          "type": "address"
        }
      ],
      "name": "includeInFee",
      "outputs": [],
      "stateMutability": "nonpayable",
      "type": "function"
    },
    {
      "inputs": [
        {
          "internalType": "address",
          "name": "spender",
          "type": "address"
        },
        {
          "internalType": "uint256",
          "name": "addedValue",
          "type": "uint256"
        }
      ],
      "name": "increaseAllowance",
      "outputs": [
        {
          "internalType": "bool",
          "name": "",
          "type": "bool"
        }
      ],
      "stateMutability": "nonpayable",
      "type": "function"
    },
    {
      "inputs": [
        {
          "internalType": "address",
          "name": "account",
          "type": "address"
        }
      ],
      "name": "isExcludedFromFee",
      "outputs": [
        {
          "internalType": "bool",
          "name": "",
          "type": "bool"
        }
      ],
      "stateMutability": "view",
      "type": "function"
    },
    {
      "inputs": [
        {
          "internalType": "uint256",
          "name": "_val",
          "type": "uint256"
        }
      ],
      "name": "mint",
      "outputs": [],
      "stateMutability": "nonpayable",
      "type": "function"
    },
    {
      "inputs": [],
      "name": "name",
      "outputs": [
        {
          "internalType": "string",
          "name": "",
          "type": "string"
        }
      ],
      "stateMutability": "view",
      "type": "function"
    },
    {
      "inputs": [],
      "name": "owner",
      "outputs": [
        {
          "internalType": "address",
          "name": "",
          "type": "address"
        }
      ],
      "stateMutability": "view",
      "type": "function"
    },
    {
      "inputs": [],
      "name": "pairAddress",
      "outputs": [
        {
          "internalType": "address",
          "name": "",
          "type": "address"
        }
      ],
      "stateMutability": "view",
      "type": "function"
    },
    {
      "inputs": [],
      "name": "renounceOwnership",
      "outputs": [],
      "stateMutability": "nonpayable",
      "type": "function"
    },
    {
      "inputs": [],
      "name": "routerAddress",
      "outputs": [
        {
          "internalType": "address",
          "name": "",
          "type": "address"
        }
      ],
      "stateMutability": "view",
      "type": "function"
    },
    {
      "inputs": [
        {
          "internalType": "bool",
          "name": "_flag",
          "type": "bool"
        }
      ],
      "name": "setHasSellFee",
      "outputs": [],
      "stateMutability": "nonpayable",
      "type": "function"
    },
    {
      "inputs": [
        {
          "internalType": "uint256",
          "name": "_taxFee",
          "type": "uint256"
        }
      ],
      "name": "setTax",
      "outputs": [],
      "stateMutability": "nonpayable",
      "type": "function"
    },
    {
      "inputs": [
        {
          "internalType": "address",
          "name": "_taxAddress",
          "type": "address"
        }
      ],
      "name": "setTaxAddress",
      "outputs": [],
      "stateMutability": "nonpayable",
      "type": "function"
    },
    {
      "inputs": [],
      "name": "symbol",
      "outputs": [
        {
          "internalType": "string",
          "name": "",
          "type": "string"
        }
      ],
      "stateMutability": "view",
      "type": "function"
    },
    {
      "inputs": [],
      "name": "taxAddress",
      "outputs": [
        {
          "internalType": "address",
          "name": "",
          "type": "address"
        }
      ],
      "stateMutability": "view",
      "type": "function"
    },
    {
      "inputs": [],
      "name": "totalSupply",
      "outputs": [
        {
          "internalType": "uint256",
          "name": "",
          "type": "uint256"
        }
      ],
      "stateMutability": "view",
      "type": "function"
    },
    {
      "inputs": [
        {
          "internalType": "address",
          "name": "recipient",
          "type": "address"
        },
        {
          "internalType": "uint256",
          "name": "amount",
          "type": "uint256"
        }
      ],
      "name": "transfer",
      "outputs": [
        {
          "internalType": "bool",
          "name": "",
          "type": "bool"
        }
      ],
      "stateMutability": "nonpayable",
      "type": "function"
    },
    {
      "inputs": [
        {
          "internalType": "address",
          "name": "sender",
          "type": "address"
        },
        {
          "internalType": "address",
          "name": "recipient",
          "type": "address"
        },
        {
          "internalType": "uint256",
          "name": "amount",
          "type": "uint256"
        }
      ],
      "name": "transferFrom",
      "outputs": [
        {
          "internalType": "bool",
          "name": "",
          "type": "bool"
        }
      ],
      "stateMutability": "nonpayable",
      "type": "function"
    },
    {
      "inputs": [
        {
          "internalType": "address",
          "name": "newOwner",
          "type": "address"
        }
      ],
      "name": "transferOwnership",
      "outputs": [],
      "stateMutability": "nonpayable",
      "type": "function"
    }
  ],
  "bytecode": "0x610100604052600460c0819052634d65746160e01b60e090815262000028916009919062000423565b50604080518082019091526004808252634d45544160e01b60209092019182526200005691600a9162000423565b506a52b7d2dcc80cd2e4000000600b55600c80546001600160a81b031916740155d398326f99059ff775485246999027b3197955179055610258600d55348015620000a057600080fd5b506040516200179e3803806200179e833981016040819052620000c391620005a5565b815182908290620000dc90600390602085019062000423565b508051620000f290600490602084019062000423565b5050506200010f62000109620002ae60201b60201c565b620002b2565b6200012333600b546200030460201b60201c565b600e80546001600160a01b031916331790556040805163c45a015560e01b815290517310ed43c718714eb63d5aa57b78b54704e256024e91829163c45a015591600480820192602092909190829003018186803b1580156200018457600080fd5b505afa15801562000199573d6000803e3d6000fd5b505050506040513d601f19601f82011682018060405250810190620001bf91906200057c565b600c546040516364e329cb60e11b81523060048201526001600160a01b03918216602482015291169063c9c6539690604401602060405180830381600087803b1580156200020c57600080fd5b505af115801562000221573d6000803e3d6000fd5b505050506040513d601f19601f820116820180604052508101906200024791906200057c565b6001600160601b0319606091821b81166080529082901b1660a0526001600f60006200027b6005546001600160a01b031690565b6001600160a01b031681526020810191909152604001600020805460ff1916911515919091179055506200068e92505050565b3390565b600580546001600160a01b038381166001600160a01b0319831681179093556040519116919082907f8be0079c531659141344cd1fd0a4f28419497f9722a3daafe3b4186f6b6457e090600090a35050565b6001600160a01b0382166200035f5760405162461bcd60e51b815260206004820152601f60248201527f45524332303a206d696e7420746f20746865207a65726f206164647265737300604482015260640160405180910390fd5b6200037b816008546200040e60201b620008b71790919060201c565b6008556001600160a01b038216600090815260066020908152604090912054620003b0918390620008b76200040e821b17901c565b6001600160a01b0383166000818152600660205260408082209390935591519091907fddf252ad1be2c89b69c2b068fc378daa952ba7f163c4a11628f55a4df523b3ef90620004029085815260200190565b60405180910390a35050565b60006200041c828462000616565b9392505050565b82805462000431906200063b565b90600052602060002090601f016020900481019282620004555760008555620004a0565b82601f106200047057805160ff1916838001178555620004a0565b82800160010185558215620004a0579182015b82811115620004a057825182559160200191906001019062000483565b50620004ae929150620004b2565b5090565b5b80821115620004ae5760008155600101620004b3565b600082601f830112620004da578081fd5b81516001600160401b0380821115620004f757620004f762000678565b604051601f8301601f19908116603f0116810190828211818310171562000522576200052262000678565b816040528381526020925086838588010111156200053e578485fd5b8491505b8382101562000561578582018301518183018401529082019062000542565b838211156200057257848385830101525b9695505050505050565b6000602082840312156200058e578081fd5b81516001600160a01b03811681146200041c578182fd5b600080600060608486031215620005ba578182fd5b835160208501519093506001600160401b0380821115620005d9578384fd5b620005e787838801620004c9565b93506040860151915080821115620005fd578283fd5b506200060c86828701620004c9565b9150509250925092565b600082198211156200063657634e487b7160e01b81526011600452602481fd5b500190565b600181811c908216806200065057607f821691505b602082108114156200067257634e487b7160e01b600052602260045260246000fd5b50919050565b634e487b7160e01b600052604160045260246000fd5b60805160601c60a05160601c6110dd620006c1600039600061022201526000818161034a0152610b6c01526110dd6000f3fe608060405234801561001057600080fd5b506004361061018e5760003560e01c806393c9dc8d116100de578063a9059cbb11610097578063dd62ed3e11610071578063dd62ed3e1461039b578063ea2f0b37146103d4578063f2fde38b146103e7578063ff93ab35146103fa57600080fd5b8063a9059cbb1461036c578063b7bda68f1461037f578063d9de569a1461039257600080fd5b806393c9dc8d146102f057806395d89b4114610304578063a0712d681461030c578063a1883d261461031f578063a457c2d714610332578063a8b089821461034557600080fd5b80633268cc561161014b5780635342acb4116101255780635342acb41461028257806370a08231146102ae578063715018a6146102d75780638da5cb5b146102df57600080fd5b80633268cc561461021d578063395093511461025c578063437823ec1461026f57600080fd5b806306fdde0314610193578063095ea7b3146101b157806318160ddd146101d457806323b872dd146101e65780632e5bb6ff146101f9578063313ce5671461020e575b600080fd5b61019b61040d565b6040516101a89190610f60565b60405180910390f35b6101c46101bf366004610eff565b61049f565b60405190151581526020016101a8565b6002545b6040519081526020016101a8565b6101c46101f4366004610ec4565b6104b5565b61020c610207366004610f48565b610564565b005b604051601281526020016101a8565b6102447f000000000000000000000000000000000000000000000000000000000000000081565b6040516001600160a01b0390911681526020016101a8565b6101c461026a366004610eff565b610593565b61020c61027d366004610e78565b6105ce565b6101c4610290366004610e78565b6001600160a01b03166000908152600f602052604090205460ff1690565b6101d86102bc366004610e78565b6001600160a01b031660009081526006602052604090205490565b61020c61061c565b6005546001600160a01b0316610244565b600c546101c490600160a01b900460ff1681565b61019b610652565b61020c61031a366004610f48565b610661565b61020c61032d366004610e78565b610698565b6101c4610340366004610eff565b6106e4565b6102447f000000000000000000000000000000000000000000000000000000000000000081565b6101c461037a366004610eff565b61077f565b600e54610244906001600160a01b031681565b6101d8600d5481565b6101d86103a9366004610e92565b6001600160a01b03918216600090815260076020908152604080832093909416825291909152205490565b61020c6103e2366004610e78565b61078c565b61020c6103f5366004610e78565b6107d7565b61020c610408366004610f28565b61086f565b60606003805461041c90611056565b80601f016020809104026020016040519081016040528092919081815260200182805461044890611056565b80156104955780601f1061046a57610100808354040283529160200191610495565b820191906000526020600020905b81548152906001019060200180831161047857829003601f168201915b5050505050905090565b60006104ac3384846108ca565b50600192915050565b60006104c28484846109ee565b6001600160a01b03841660009081526007602090815260408083203384529091529020548281101561054c5760405162461bcd60e51b815260206004820152602860248201527f45524332303a207472616e7366657220616d6f756e74206578636565647320616044820152676c6c6f77616e636560c01b60648201526084015b60405180910390fd5b61055985338584036108ca565b506001949350505050565b6005546001600160a01b0316331461058e5760405162461bcd60e51b815260040161054390610fb3565b600d55565b3360008181526007602090815260408083206001600160a01b038716845290915281205490916104ac9185906105c990866108b7565b6108ca565b6005546001600160a01b031633146105f85760405162461bcd60e51b815260040161054390610fb3565b6001600160a01b03166000908152600f60205260409020805460ff19166001179055565b6005546001600160a01b031633146106465760405162461bcd60e51b815260040161054390610fb3565b6106506000610d00565b565b60606004805461041c90611056565b6005546001600160a01b0316331461068b5760405162461bcd60e51b815260040161054390610fb3565b6106953382610d52565b50565b6005546001600160a01b031633146106c25760405162461bcd60e51b815260040161054390610fb3565b600e80546001600160a01b0319166001600160a01b0392909216919091179055565b3360009081526007602090815260408083206001600160a01b0386168452909152812054828110156107665760405162461bcd60e51b815260206004820152602560248201527f45524332303a2064656372656173656420616c6c6f77616e63652062656c6f77604482015264207a65726f60d81b6064820152608401610543565b61077533856105c98487610e38565b5060019392505050565b60006104ac3384846109ee565b6005546001600160a01b031633146107b65760405162461bcd60e51b815260040161054390610fb3565b6001600160a01b03166000908152600f60205260409020805460ff19169055565b6005546001600160a01b031633146108015760405162461bcd60e51b815260040161054390610fb3565b6001600160a01b0381166108665760405162461bcd60e51b815260206004820152602660248201527f4f776e61626c653a206e6577206f776e657220697320746865207a65726f206160448201526564647265737360d01b6064820152608401610543565b61069581610d00565b6005546001600160a01b031633146108995760405162461bcd60e51b815260040161054390610fb3565b600c8054911515600160a01b0260ff60a01b19909216919091179055565b60006108c38284610fe8565b9392505050565b6001600160a01b03831661092c5760405162461bcd60e51b8152602060048201526024808201527f45524332303a20617070726f76652066726f6d20746865207a65726f206164646044820152637265737360e01b6064820152608401610543565b6001600160a01b03821661098d5760405162461bcd60e51b815260206004820152602260248201527f45524332303a20617070726f766520746f20746865207a65726f206164647265604482015261737360f01b6064820152608401610543565b6001600160a01b0383811660008181526007602090815260408083209487168084529482529182902085905590518481527f8c5be1e5ebec7d5bd14f71427d1e84f3dd0314c0f7b2291e5b200ac8c7c3b925910160405180910390a3505050565b6001600160a01b038316610a525760405162461bcd60e51b815260206004820152602560248201527f45524332303a207472616e736665722066726f6d20746865207a65726f206164604482015264647265737360d81b6064820152608401610543565b6001600160a01b038216610ab45760405162461bcd60e51b815260206004820152602360248201527f45524332303a207472616e7366657220746f20746865207a65726f206164647260448201526265737360e81b6064820152608401610543565b6001600160a01b03831660009081526006602052604090205481811015610b2c5760405162461bcd60e51b815260206004820152602660248201527f45524332303a207472616e7366657220616d6f756e7420657863656564732062604482015265616c616e636560d01b6064820152608401610543565b610b368183610e38565b6001600160a01b038516600090815260066020908152604080832093909355600f9052205460019060ff1615610b6a575060005b7f00000000000000000000000000000000000000000000000000000000000000006001600160a01b0316846001600160a01b0316148015610ba85750805b8015610bbd5750600c54600160a01b900460ff165b15610c7a576000610be5612710610bdf600d5487610e4490919063ffffffff16565b90610e50565b600e546001600160a01b0316600090815260066020526040902054909150610c0d90826108b7565b600e80546001600160a01b03908116600090815260066020908152604091829020949094559154915184815291811692908916917fddf252ad1be2c89b69c2b068fc378daa952ba7f163c4a11628f55a4df523b3ef910160405180910390a3610c768482610e38565b9350505b6001600160a01b038416600090815260066020526040902054610c9d90846108b7565b6001600160a01b0380861660008181526006602052604090819020939093559151908716907fddf252ad1be2c89b69c2b068fc378daa952ba7f163c4a11628f55a4df523b3ef90610cf19087815260200190565b60405180910390a35050505050565b600580546001600160a01b038381166001600160a01b0319831681179093556040519116919082907f8be0079c531659141344cd1fd0a4f28419497f9722a3daafe3b4186f6b6457e090600090a35050565b6001600160a01b038216610da85760405162461bcd60e51b815260206004820152601f60248201527f45524332303a206d696e7420746f20746865207a65726f2061646472657373006044820152606401610543565b600854610db590826108b7565b6008556001600160a01b038216600090815260066020526040902054610ddb90826108b7565b6001600160a01b0383166000818152600660205260408082209390935591519091907fddf252ad1be2c89b69c2b068fc378daa952ba7f163c4a11628f55a4df523b3ef90610e2c9085815260200190565b60405180910390a35050565b60006108c3828461103f565b60006108c38284611020565b60006108c38284611000565b80356001600160a01b0381168114610e7357600080fd5b919050565b600060208284031215610e89578081fd5b6108c382610e5c565b60008060408385031215610ea4578081fd5b610ead83610e5c565b9150610ebb60208401610e5c565b90509250929050565b600080600060608486031215610ed8578081fd5b610ee184610e5c565b9250610eef60208501610e5c565b9150604084013590509250925092565b60008060408385031215610f11578182fd5b610f1a83610e5c565b946020939093013593505050565b600060208284031215610f39578081fd5b813580151581146108c3578182fd5b600060208284031215610f59578081fd5b5035919050565b6000602080835283518082850152825b81811015610f8c57858101830151858201604001528201610f70565b81811115610f9d5783604083870101525b50601f01601f1916929092016040019392505050565b6020808252818101527f4f776e61626c653a2063616c6c6572206973206e6f7420746865206f776e6572604082015260600190565b60008219821115610ffb57610ffb611091565b500190565b60008261101b57634e487b7160e01b81526012600452602481fd5b500490565b600081600019048311821515161561103a5761103a611091565b500290565b60008282101561105157611051611091565b500390565b600181811c9082168061106a57607f821691505b6020821081141561108b57634e487b7160e01b600052602260045260246000fd5b50919050565b634e487b7160e01b600052601160045260246000fdfea26469706673582212207fb514ac5009100d5d311123e0f42fe3d7381c1c3e42737e90f8236ae15939fc64736f6c63430008040033",
  "linkReferences": {},
  "deployedLinkReferences": {}
}