{
  "_format": "hh-sol-artifact-1",
  "contractName": "MetaspaceNft",
  "sourceName": "contracts/MetaspaceNft.sol",
  "abi": [
    {
      "inputs": [],
      "stateMutability": "nonpayable",
      "type": "constructor"
    },
    {
      "anonymous": false,
      "inputs": [
        {
          "indexed": true,
          "internalType": "address",
          "name": "owner",
          "type": "address"
        },
        {
          "indexed": true,
          "internalType": "address",
          "name": "approved",
          "type": "address"
        },
        {
          "indexed": true,
          "internalType": "uint256",
          "name": "tokenId",
          "type": "uint256"
        }
      ],
      "name": "Approval",
      "type": "event"
    },
    {
      "anonymous": false,
      "inputs": [
        {
          "indexed": true,
          "internalType": "address",
          "name": "owner",
          "type": "address"
        },
        {
          "indexed": true,
          "internalType": "address",
          "name": "operator",
          "type": "address"
        },
        {
          "indexed": false,
          "internalType": "bool",
          "name": "approved",
          "type": "bool"
        }
      ],
      "name": "ApprovalForAll",
      "type": "event"
    },
    {
      "anonymous": false,
      "inputs": [
        {
          "indexed": true,
          "internalType": "address",
          "name": "previousOwner",
          "type": "address"
        },
        {
          "indexed": true,
          "internalType": "address",
          "name": "newOwner",
          "type": "address"
        }
      ],
      "name": "OwnershipTransferred",
      "type": "event"
    },
    {
      "anonymous": false,
      "inputs": [
        {
          "indexed": true,
          "internalType": "address",
          "name": "from",
          "type": "address"
        },
        {
          "indexed": true,
          "internalType": "address",
          "name": "to",
          "type": "address"
        },
        {
          "indexed": true,
          "internalType": "uint256",
          "name": "tokenId",
          "type": "uint256"
        }
      ],
      "name": "Transfer",
      "type": "event"
    },
    {
      "inputs": [
        {
          "internalType": "address",
          "name": "to",
          "type": "address"
        },
        {
          "internalType": "uint256",
          "name": "tokenId",
          "type": "uint256"
        }
      ],
      "name": "approve",
      "outputs": [],
      "stateMutability": "nonpayable",
      "type": "function"
    },
    {
      "inputs": [
        {
          "internalType": "address",
          "name": "owner",
          "type": "address"
        }
      ],
      "name": "balanceOf",
      "outputs": [
        {
          "internalType": "uint256",
          "name": "",
          "type": "uint256"
        }
      ],
      "stateMutability": "view",
      "type": "function"
    },
    {
      "inputs": [
        {
          "internalType": "uint256",
          "name": "tokenId",
          "type": "uint256"
        }
      ],
      "name": "burn",
      "outputs": [],
      "stateMutability": "nonpayable",
      "type": "function"
    },
    {
      "inputs": [
        {
          "internalType": "uint256",
          "name": "tokenId",
          "type": "uint256"
        }
      ],
      "name": "getApproved",
      "outputs": [
        {
          "internalType": "address",
          "name": "",
          "type": "address"
        }
      ],
      "stateMutability": "view",
      "type": "function"
    },
    {
      "inputs": [
        {
          "internalType": "address",
          "name": "owner",
          "type": "address"
        },
        {
          "internalType": "address",
          "name": "operator",
          "type": "address"
        }
      ],
      "name": "isApprovedForAll",
      "outputs": [
        {
          "internalType": "bool",
          "name": "",
          "type": "bool"
        }
      ],
      "stateMutability": "view",
      "type": "function"
    },
    {
      "inputs": [
        {
          "internalType": "address",
          "name": "to",
          "type": "address"
        }
      ],
      "name": "mintLevel1",
      "outputs": [],
      "stateMutability": "nonpayable",
      "type": "function"
    },
    {
      "inputs": [
        {
          "internalType": "address",
          "name": "to",
          "type": "address"
        }
      ],
      "name": "mintLevel2",
      "outputs": [],
      "stateMutability": "nonpayable",
      "type": "function"
    },
    {
      "inputs": [
        {
          "internalType": "address",
          "name": "to",
          "type": "address"
        }
      ],
      "name": "mintLevel3",
      "outputs": [],
      "stateMutability": "nonpayable",
      "type": "function"
    },
    {
      "inputs": [
        {
          "internalType": "address",
          "name": "to",
          "type": "address"
        }
      ],
      "name": "mintLevel4",
      "outputs": [],
      "stateMutability": "nonpayable",
      "type": "function"
    },
    {
      "inputs": [],
      "name": "name",
      "outputs": [
        {
          "internalType": "string",
          "name": "",
          "type": "string"
        }
      ],
      "stateMutability": "view",
      "type": "function"
    },
    {
      "inputs": [
        {
          "internalType": "uint256",
          "name": "",
          "type": "uint256"
        }
      ],
      "name": "nftPool",
      "outputs": [
        {
          "internalType": "uint256",
          "name": "",
          "type": "uint256"
        }
      ],
      "stateMutability": "view",
      "type": "function"
    },
    {
      "inputs": [],
      "name": "owner",
      "outputs": [
        {
          "internalType": "address",
          "name": "",
          "type": "address"
        }
      ],
      "stateMutability": "view",
      "type": "function"
    },
    {
      "inputs": [
        {
          "internalType": "uint256",
          "name": "tokenId",
          "type": "uint256"
        }
      ],
      "name": "ownerOf",
      "outputs": [
        {
          "internalType": "address",
          "name": "",
          "type": "address"
        }
      ],
      "stateMutability": "view",
      "type": "function"
    },
    {
      "inputs": [],
      "name": "renounceOwnership",
      "outputs": [],
      "stateMutability": "nonpayable",
      "type": "function"
    },
    {
      "inputs": [
        {
          "internalType": "address",
          "name": "to",
          "type": "address"
        },
        {
          "internalType": "string",
          "name": "uri",
          "type": "string"
        },
        {
          "internalType": "uint256",
          "name": "count",
          "type": "uint256"
        }
      ],
      "name": "safeMint",
      "outputs": [],
      "stateMutability": "nonpayable",
      "type": "function"
    },
    {
      "inputs": [
        {
          "internalType": "address",
          "name": "from",
          "type": "address"
        },
        {
          "internalType": "address",
          "name": "to",
          "type": "address"
        },
        {
          "internalType": "uint256",
          "name": "tokenId",
          "type": "uint256"
        }
      ],
      "name": "safeTransferFrom",
      "outputs": [],
      "stateMutability": "nonpayable",
      "type": "function"
    },
    {
      "inputs": [
        {
          "internalType": "address",
          "name": "from",
          "type": "address"
        },
        {
          "internalType": "address",
          "name": "to",
          "type": "address"
        },
        {
          "internalType": "uint256",
          "name": "tokenId",
          "type": "uint256"
        },
        {
          "internalType": "bytes",
          "name": "_data",
          "type": "bytes"
        }
      ],
      "name": "safeTransferFrom",
      "outputs": [],
      "stateMutability": "nonpayable",
      "type": "function"
    },
    {
      "inputs": [
        {
          "internalType": "address",
          "name": "operator",
          "type": "address"
        },
        {
          "internalType": "bool",
          "name": "approved",
          "type": "bool"
        }
      ],
      "name": "setApprovalForAll",
      "outputs": [],
      "stateMutability": "nonpayable",
      "type": "function"
    },
    {
      "inputs": [
        {
          "internalType": "bytes4",
          "name": "interfaceId",
          "type": "bytes4"
        }
      ],
      "name": "supportsInterface",
      "outputs": [
        {
          "internalType": "bool",
          "name": "",
          "type": "bool"
        }
      ],
      "stateMutability": "view",
      "type": "function"
    },
    {
      "inputs": [],
      "name": "symbol",
      "outputs": [
        {
          "internalType": "string",
          "name": "",
          "type": "string"
        }
      ],
      "stateMutability": "view",
      "type": "function"
    },
    {
      "inputs": [
        {
          "internalType": "uint256",
          "name": "index",
          "type": "uint256"
        }
      ],
      "name": "tokenByIndex",
      "outputs": [
        {
          "internalType": "uint256",
          "name": "",
          "type": "uint256"
        }
      ],
      "stateMutability": "view",
      "type": "function"
    },
    {
      "inputs": [
        {
          "internalType": "address",
          "name": "owner",
          "type": "address"
        },
        {
          "internalType": "uint256",
          "name": "index",
          "type": "uint256"
        }
      ],
      "name": "tokenOfOwnerByIndex",
      "outputs": [
        {
          "internalType": "uint256",
          "name": "",
          "type": "uint256"
        }
      ],
      "stateMutability": "view",
      "type": "function"
    },
    {
      "inputs": [
        {
          "internalType": "uint256",
          "name": "tokenId",
          "type": "uint256"
        }
      ],
      "name": "tokenURI",
      "outputs": [
        {
          "internalType": "string",
          "name": "",
          "type": "string"
        }
      ],
      "stateMutability": "view",
      "type": "function"
    },
    {
      "inputs": [],
      "name": "totalSupply",
      "outputs": [
        {
          "internalType": "uint256",
          "name": "",
          "type": "uint256"
        }
      ],
      "stateMutability": "view",
      "type": "function"
    },
    {
      "inputs": [
        {
          "internalType": "address",
          "name": "from",
          "type": "address"
        },
        {
          "internalType": "address",
          "name": "to",
          "type": "address"
        },
        {
          "internalType": "uint256",
          "name": "tokenId",
          "type": "uint256"
        }
      ],
      "name": "transferFrom",
      "outputs": [],
      "stateMutability": "nonpayable",
      "type": "function"
    },
    {
      "inputs": [
        {
          "internalType": "address",
          "name": "newOwner",
          "type": "address"
        }
      ],
      "name": "transferOwnership",
      "outputs": [],
      "stateMutability": "nonpayable",
      "type": "function"
    },
    {
      "inputs": [],
      "name": "userMint",
      "outputs": [],
      "stateMutability": "payable",
      "type": "function"
    },
    {
      "inputs": [],
      "name": "withdraw",
      "outputs": [],
      "stateMutability": "nonpayable",
      "type": "function"
    }
  ],
  "bytecode": "0x61010060405261012c6080908152601460a052600560c052600160e0526200002c90600d9060046200011d565b506101466011556101466012553480156200004657600080fd5b50604080518082018252600c8082526b13595d185cdc1858d953999d60a21b6020808401828152855180870190965292855284015281519192916200008e9160009162000166565b508051620000a490600190602084019062000166565b505050620000c1620000bb620000c760201b60201c565b620000cb565b62000237565b3390565b600b80546001600160a01b038381166001600160a01b0319831681179093556040519116919082907f8be0079c531659141344cd1fd0a4f28419497f9722a3daafe3b4186f6b6457e090600090a35050565b826004810192821562000154579160200282015b8281111562000154578251829061ffff1690559160200191906001019062000131565b5062000162929150620001e3565b5090565b8280546200017490620001fa565b90600052602060002090601f01602090048101928262000198576000855562000154565b82601f10620001b357805160ff191683800117855562000154565b8280016001018555821562000154579182015b8281111562000154578251825591602001919060010190620001c6565b5b80821115620001625760008155600101620001e4565b600181811c908216806200020f57607f821691505b602082108114156200023157634e487b7160e01b600052602260045260246000fd5b50919050565b6126d680620002476000396000f3fe6080604052600436106101b75760003560e01c80635a6eba63116100ec578063b88d4fde1161008a578063d5c0398611610064578063d5c03986146104c9578063df8f460f146104e9578063e985e9c5146104f1578063f2fde38b1461053a57600080fd5b8063b88d4fde14610469578063c772745a14610489578063c87b56dd146104a957600080fd5b8063715018a6116100c6578063715018a6146104015780638da5cb5b1461041657806395d89b4114610434578063a22cb4651461044957600080fd5b80635a6eba63146103a15780636352211e146103c157806370a08231146103e157600080fd5b80633ccfd60b1161015957806342966c681161013357806342966c681461032157806346dd01281461034157806347a51a2c146103615780634f6ccce71461038157600080fd5b80633ccfd60b146102cc5780633d2d1402146102e157806342842e0e1461030157600080fd5b8063095ea7b311610195578063095ea7b31461024b57806318160ddd1461026d57806323b872dd1461028c5780632f745c59146102ac57600080fd5b806301ffc9a7146101bc57806306fdde03146101f1578063081812fc14610213575b600080fd5b3480156101c857600080fd5b506101dc6101d736600461237d565b61055a565b60405190151581526020015b60405180910390f35b3480156101fd57600080fd5b5061020661056b565b6040516101e89190612465565b34801561021f57600080fd5b5061023361022e3660046123b5565b6105fd565b6040516001600160a01b0390911681526020016101e8565b34801561025757600080fd5b5061026b610266366004612354565b61068a565b005b34801561027957600080fd5b506008545b6040519081526020016101e8565b34801561029857600080fd5b5061026b6102a73660046121fe565b6107a0565b3480156102b857600080fd5b5061027e6102c7366004612354565b6107d2565b3480156102d857600080fd5b5061026b610868565b3480156102ed57600080fd5b5061026b6102fc3660046121b2565b61098b565b34801561030d57600080fd5b5061026b61031c3660046121fe565b610a22565b34801561032d57600080fd5b5061026b61033c3660046123b5565b610a3d565b34801561034d57600080fd5b5061026b61035c3660046121b2565b610ab7565b34801561036d57600080fd5b5061026b61037c3660046121b2565b610b30565b34801561038d57600080fd5b5061027e61039c3660046123b5565b610ba9565b3480156103ad57600080fd5b5061027e6103bc3660046123b5565b610c4a565b3480156103cd57600080fd5b506102336103dc3660046123b5565b610c61565b3480156103ed57600080fd5b5061027e6103fc3660046121b2565b610cd8565b34801561040d57600080fd5b5061026b610d5f565b34801561042257600080fd5b50600b546001600160a01b0316610233565b34801561044057600080fd5b50610206610d95565b34801561045557600080fd5b5061026b6104643660046122b2565b610da4565b34801561047557600080fd5b5061026b610484366004612239565b610daf565b34801561049557600080fd5b5061026b6104a43660046122ec565b610de7565b3480156104b557600080fd5b506102066104c43660046123b5565b610e5e565b3480156104d557600080fd5b5061026b6104e43660046121b2565b610e69565b61026b610ee2565b3480156104fd57600080fd5b506101dc61050c3660046121cc565b6001600160a01b03918216600090815260056020908152604080832093909416825291909152205460ff1690565b34801561054657600080fd5b5061026b6105553660046121b2565b6110e2565b60006105658261117a565b92915050565b60606000805461057a906125de565b80601f01602080910402602001604051908101604052809291908181526020018280546105a6906125de565b80156105f35780601f106105c8576101008083540402835291602001916105f3565b820191906000526020600020905b8154815290600101906020018083116105d657829003601f168201915b5050505050905090565b60006106088261119f565b61066e5760405162461bcd60e51b815260206004820152602c60248201527f4552433732313a20617070726f76656420717565727920666f72206e6f6e657860448201526b34b9ba32b73a103a37b5b2b760a11b60648201526084015b60405180910390fd5b506000908152600460205260409020546001600160a01b031690565b600061069582610c61565b9050806001600160a01b0316836001600160a01b031614156107035760405162461bcd60e51b815260206004820152602160248201527f4552433732313a20617070726f76616c20746f2063757272656e74206f776e656044820152603960f91b6064820152608401610665565b336001600160a01b038216148061071f575061071f813361050c565b6107915760405162461bcd60e51b815260206004820152603860248201527f4552433732313a20617070726f76652063616c6c6572206973206e6f74206f7760448201527f6e6572206e6f7220617070726f76656420666f7220616c6c00000000000000006064820152608401610665565b61079b83836111bc565b505050565b6107ab335b8261122a565b6107c75760405162461bcd60e51b8152600401610665906124ff565b61079b838383611314565b60006107dd83610cd8565b821061083f5760405162461bcd60e51b815260206004820152602b60248201527f455243373231456e756d657261626c653a206f776e657220696e646578206f7560448201526a74206f6620626f756e647360a81b6064820152608401610665565b506001600160a01b03919091166000908152600660209081526040808320938352929052205490565b600b546001600160a01b031633146108925760405162461bcd60e51b8152600401610665906124ca565b47806108e05760405162461bcd60e51b815260206004820152601760248201527f4e4f2062616c616e636520746f2077697468647261772e0000000000000000006044820152606401610665565b60006108f4600b546001600160a01b031690565b6001600160a01b03168260405160006040518083038185875af1925050503d806000811461093e576040519150601f19603f3d011682016040523d82523d6000602084013e610943565b606091505b50509050806109875760405162461bcd60e51b815260206004820152601060248201526f2a3930b739b332b9103330b4b632b21760811b6044820152606401610665565b5050565b600f5461099b5761099b81610b30565b60408051808201909152600b81526a7b226c6576656c223a337d60a81b602082015260006109c8600c5490565b90506109d8600c80546001019055565b6109e283826114bb565b6109ec81836114d5565b600f546109fb9060019061259b565b600d60025b0181905550600160116000828254610a18919061259b565b9091555050505050565b61079b83838360405180602001604052806000815250610daf565b610a46336107a5565b610aab5760405162461bcd60e51b815260206004820152603060248201527f4552433732314275726e61626c653a2063616c6c6572206973206e6f74206f7760448201526f1b995c881b9bdc88185c1c1c9bdd995960821b6064820152608401610665565b610ab481611560565b50565b600d54610ac757610ac781610e69565b60408051808201909152600b81526a7b226c6576656c223a317d60a81b60208201526000610af4600c5490565b9050610b04600c80546001019055565b610b0e83826114bb565b610b1881836114d5565b600d54610b279060019061259b565b600d6000610a00565b601054610b4057610b4081610ab7565b60408051808201909152600b81526a7b226c6576656c223a347d60a81b60208201526000610b6d600c5490565b9050610b7d600c80546001019055565b610b8783826114bb565b610b9181836114d5565b601054610ba09060019061259b565b600d6003610a00565b6000610bb460085490565b8210610c175760405162461bcd60e51b815260206004820152602c60248201527f455243373231456e756d657261626c653a20676c6f62616c20696e646578206f60448201526b7574206f6620626f756e647360a01b6064820152608401610665565b60088281548110610c3857634e487b7160e01b600052603260045260246000fd5b90600052602060002001549050919050565b600d8160048110610c5a57600080fd5b0154905081565b6000818152600260205260408120546001600160a01b0316806105655760405162461bcd60e51b815260206004820152602960248201527f4552433732313a206f776e657220717565727920666f72206e6f6e657869737460448201526832b73a103a37b5b2b760b91b6064820152608401610665565b60006001600160a01b038216610d435760405162461bcd60e51b815260206004820152602a60248201527f4552433732313a2062616c616e636520717565727920666f7220746865207a65604482015269726f206164647265737360b01b6064820152608401610665565b506001600160a01b031660009081526003602052604090205490565b600b546001600160a01b03163314610d895760405162461bcd60e51b8152600401610665906124ca565b610d936000611569565b565b60606001805461057a906125de565b6109873383836115bb565b610db9338361122a565b610dd55760405162461bcd60e51b8152600401610665906124ff565b610de18484848461168a565b50505050565b600b546001600160a01b03163314610e115760405162461bcd60e51b8152600401610665906124ca565b60005b81811015610de1576000610e27600c5490565b9050610e37600c80546001019055565b610e4185826114bb565b610e4b81856114d5565b5080610e5681612619565b915050610e14565b6060610565826116bd565b600e54610e7957610e798161098b565b60408051808201909152600b81526a7b226c6576656c223a327d60a81b60208201526000610ea6600c5490565b9050610eb6600c80546001019055565b610ec083826114bb565b610eca81836114d5565b600e54610ed99060019061259b565b600d6001610a00565b600060115411610f2d5760405162461bcd60e51b815260206004820152601660248201527520b6361037333a103430b9903132b2b71039b7b6321760511b6044820152606401610665565b346706f05b59d3b2000014610f845760405162461bcd60e51b815260206004820152601760248201527f56616c75652073686f756c6420626520302e3520626e620000000000000000006044820152606401610665565b6040516bffffffffffffffffffffffff193360601b166020820152600090439042906034016040516020818303038152906040528051906020012060001c610fcc9190612568565b6040516bffffffffffffffffffffffff194160601b166020820152459042906034016040516020818303038152906040528051906020012060001c6110119190612568565b61101b4442612550565b6110259190612550565b61102f9190612550565b6110399190612550565b6110439190612550565b60405160200161105591815260200190565b60408051601f1981840301815291905280516020909101206012549091506000906110808184612568565b61108a919061257c565b611094908361259b565b905061012c8110156110a95761098733610ab7565b6101408110156110bc5761098733610e69565b6101458110156110cf576109873361098b565b6101468110156109875761098733610b30565b600b546001600160a01b0316331461110c5760405162461bcd60e51b8152600401610665906124ca565b6001600160a01b0381166111715760405162461bcd60e51b815260206004820152602660248201527f4f776e61626c653a206e6577206f776e657220697320746865207a65726f206160448201526564647265737360d01b6064820152608401610665565b610ab481611569565b60006001600160e01b0319821663780e9d6360e01b148061056557506105658261182c565b6000908152600260205260409020546001600160a01b0316151590565b600081815260046020526040902080546001600160a01b0319166001600160a01b03841690811790915581906111f182610c61565b6001600160a01b03167f8c5be1e5ebec7d5bd14f71427d1e84f3dd0314c0f7b2291e5b200ac8c7c3b92560405160405180910390a45050565b60006112358261119f565b6112965760405162461bcd60e51b815260206004820152602c60248201527f4552433732313a206f70657261746f7220717565727920666f72206e6f6e657860448201526b34b9ba32b73a103a37b5b2b760a11b6064820152608401610665565b60006112a183610c61565b9050806001600160a01b0316846001600160a01b031614806112dc5750836001600160a01b03166112d1846105fd565b6001600160a01b0316145b8061130c57506001600160a01b0380821660009081526005602090815260408083209388168352929052205460ff165b949350505050565b826001600160a01b031661132782610c61565b6001600160a01b03161461138b5760405162461bcd60e51b815260206004820152602560248201527f4552433732313a207472616e736665722066726f6d20696e636f72726563742060448201526437bbb732b960d91b6064820152608401610665565b6001600160a01b0382166113ed5760405162461bcd60e51b8152602060048201526024808201527f4552433732313a207472616e7366657220746f20746865207a65726f206164646044820152637265737360e01b6064820152608401610665565b6113f883838361187c565b6114036000826111bc565b6001600160a01b038316600090815260036020526040812080546001929061142c90849061259b565b90915550506001600160a01b038216600090815260036020526040812080546001929061145a908490612550565b909155505060008181526002602052604080822080546001600160a01b0319166001600160a01b0386811691821790925591518493918716917fddf252ad1be2c89b69c2b068fc378daa952ba7f163c4a11628f55a4df523b3ef91a4505050565b610987828260405180602001604052806000815250611887565b6114de8261119f565b6115415760405162461bcd60e51b815260206004820152602e60248201527f45524337323155524953746f726167653a2055524920736574206f66206e6f6e60448201526d32bc34b9ba32b73a103a37b5b2b760911b6064820152608401610665565b6000828152600a60209081526040909120825161079b92840190612051565b610ab4816118ba565b600b80546001600160a01b038381166001600160a01b0319831681179093556040519116919082907f8be0079c531659141344cd1fd0a4f28419497f9722a3daafe3b4186f6b6457e090600090a35050565b816001600160a01b0316836001600160a01b0316141561161d5760405162461bcd60e51b815260206004820152601960248201527f4552433732313a20617070726f766520746f2063616c6c6572000000000000006044820152606401610665565b6001600160a01b03838116600081815260056020908152604080832094871680845294825291829020805460ff191686151590811790915591519182527f17307eab39ab6107e8899845ad3d59bd9653f200f220920489ca2b5937696c31910160405180910390a3505050565b611695848484611314565b6116a1848484846118fa565b610de15760405162461bcd60e51b815260040161066590612478565b60606116c88261119f565b61172e5760405162461bcd60e51b815260206004820152603160248201527f45524337323155524953746f726167653a2055524920717565727920666f72206044820152703737b732bc34b9ba32b73a103a37b5b2b760791b6064820152608401610665565b6000828152600a602052604081208054611747906125de565b80601f0160208091040260200160405190810160405280929190818152602001828054611773906125de565b80156117c05780601f10611795576101008083540402835291602001916117c0565b820191906000526020600020905b8154815290600101906020018083116117a357829003601f168201915b5050505050905060006117de60408051602081019091526000815290565b90508051600014156117f1575092915050565b81511561182357808260405160200161180b9291906123f9565b60405160208183030381529060405292505050919050565b61130c84611a07565b60006001600160e01b031982166380ac58cd60e01b148061185d57506001600160e01b03198216635b5e139f60e01b145b8061056557506301ffc9a760e01b6001600160e01b0319831614610565565b61079b838383611adf565b6118918383611b97565b61189e60008484846118fa565b61079b5760405162461bcd60e51b815260040161066590612478565b6118c381611cd6565b6000818152600a6020526040902080546118dc906125de565b159050610ab4576000818152600a60205260408120610ab4916120d5565b60006001600160a01b0384163b156119fc57604051630a85bd0160e11b81526001600160a01b0385169063150b7a029061193e903390899088908890600401612428565b602060405180830381600087803b15801561195857600080fd5b505af1925050508015611988575060408051601f3d908101601f1916820190925261198591810190612399565b60015b6119e2573d8080156119b6576040519150601f19603f3d011682016040523d82523d6000602084013e6119bb565b606091505b5080516119da5760405162461bcd60e51b815260040161066590612478565b805181602001fd5b6001600160e01b031916630a85bd0160e11b14905061130c565b506001949350505050565b6060611a128261119f565b611a765760405162461bcd60e51b815260206004820152602f60248201527f4552433732314d657461646174613a2055524920717565727920666f72206e6f60448201526e3732bc34b9ba32b73a103a37b5b2b760891b6064820152608401610665565b6000611a8d60408051602081019091526000815290565b90506000815111611aad5760405180602001604052806000815250611ad8565b80611ab784611d7d565b604051602001611ac89291906123f9565b6040516020818303038152906040525b9392505050565b6001600160a01b038316611b3a57611b3581600880546000838152600960205260408120829055600182018355919091527ff3f7a9fe364faab93b216da50a3214154f22a0a2b415b23a84c8169e8b636ee30155565b611b5d565b816001600160a01b0316836001600160a01b031614611b5d57611b5d8382611e97565b6001600160a01b038216611b745761079b81611f34565b826001600160a01b0316826001600160a01b03161461079b5761079b828261200d565b6001600160a01b038216611bed5760405162461bcd60e51b815260206004820181905260248201527f4552433732313a206d696e7420746f20746865207a65726f20616464726573736044820152606401610665565b611bf68161119f565b15611c435760405162461bcd60e51b815260206004820152601c60248201527f4552433732313a20746f6b656e20616c7265616479206d696e746564000000006044820152606401610665565b611c4f6000838361187c565b6001600160a01b0382166000908152600360205260408120805460019290611c78908490612550565b909155505060008181526002602052604080822080546001600160a01b0319166001600160a01b03861690811790915590518392907fddf252ad1be2c89b69c2b068fc378daa952ba7f163c4a11628f55a4df523b3ef908290a45050565b6000611ce182610c61565b9050611cef8160008461187c565b611cfa6000836111bc565b6001600160a01b0381166000908152600360205260408120805460019290611d2390849061259b565b909155505060008281526002602052604080822080546001600160a01b0319169055518391906001600160a01b038416907fddf252ad1be2c89b69c2b068fc378daa952ba7f163c4a11628f55a4df523b3ef908390a45050565b606081611da15750506040805180820190915260018152600360fc1b602082015290565b8160005b8115611dcb5780611db581612619565b9150611dc49050600a83612568565b9150611da5565b60008167ffffffffffffffff811115611df457634e487b7160e01b600052604160045260246000fd5b6040519080825280601f01601f191660200182016040528015611e1e576020820181803683370190505b5090505b841561130c57611e3360018361259b565b9150611e40600a86612634565b611e4b906030612550565b60f81b818381518110611e6e57634e487b7160e01b600052603260045260246000fd5b60200101906001600160f81b031916908160001a905350611e90600a86612568565b9450611e22565b60006001611ea484610cd8565b611eae919061259b565b600083815260076020526040902054909150808214611f01576001600160a01b03841660009081526006602090815260408083208584528252808320548484528184208190558352600790915290208190555b5060009182526007602090815260408084208490556001600160a01b039094168352600681528383209183525290812055565b600854600090611f469060019061259b565b60008381526009602052604081205460088054939450909284908110611f7c57634e487b7160e01b600052603260045260246000fd5b906000526020600020015490508060088381548110611fab57634e487b7160e01b600052603260045260246000fd5b6000918252602080832090910192909255828152600990915260408082208490558582528120556008805480611ff157634e487b7160e01b600052603160045260246000fd5b6001900381819060005260206000200160009055905550505050565b600061201883610cd8565b6001600160a01b039093166000908152600660209081526040808320868452825280832085905593825260079052919091209190915550565b82805461205d906125de565b90600052602060002090601f01602090048101928261207f57600085556120c5565b82601f1061209857805160ff19168380011785556120c5565b828001600101855582156120c5579182015b828111156120c55782518255916020019190600101906120aa565b506120d192915061210b565b5090565b5080546120e1906125de565b6000825580601f106120f1575050565b601f016020900490600052602060002090810190610ab491905b5b808211156120d1576000815560010161210c565b600067ffffffffffffffff8084111561213b5761213b612674565b604051601f8501601f19908116603f0116810190828211818310171561216357612163612674565b8160405280935085815286868601111561217c57600080fd5b858560208301376000602087830101525050509392505050565b80356001600160a01b03811681146121ad57600080fd5b919050565b6000602082840312156121c3578081fd5b611ad882612196565b600080604083850312156121de578081fd5b6121e783612196565b91506121f560208401612196565b90509250929050565b600080600060608486031215612212578081fd5b61221b84612196565b925061222960208501612196565b9150604084013590509250925092565b6000806000806080858703121561224e578081fd5b61225785612196565b935061226560208601612196565b925060408501359150606085013567ffffffffffffffff811115612287578182fd5b8501601f81018713612297578182fd5b6122a687823560208401612120565b91505092959194509250565b600080604083850312156122c4578182fd5b6122cd83612196565b9150602083013580151581146122e1578182fd5b809150509250929050565b600080600060608486031215612300578283fd5b61230984612196565b9250602084013567ffffffffffffffff811115612324578283fd5b8401601f81018613612334578283fd5b61234386823560208401612120565b925050604084013590509250925092565b60008060408385031215612366578182fd5b61236f83612196565b946020939093013593505050565b60006020828403121561238e578081fd5b8135611ad88161268a565b6000602082840312156123aa578081fd5b8151611ad88161268a565b6000602082840312156123c6578081fd5b5035919050565b600081518084526123e58160208601602086016125b2565b601f01601f19169290920160200192915050565b6000835161240b8184602088016125b2565b83519083019061241f8183602088016125b2565b01949350505050565b6001600160a01b038581168252841660208201526040810183905260806060820181905260009061245b908301846123cd565b9695505050505050565b602081526000611ad860208301846123cd565b60208082526032908201527f4552433732313a207472616e7366657220746f206e6f6e20455243373231526560408201527131b2b4bb32b91034b6b83632b6b2b73a32b960711b606082015260800190565b6020808252818101527f4f776e61626c653a2063616c6c6572206973206e6f7420746865206f776e6572604082015260600190565b60208082526031908201527f4552433732313a207472616e736665722063616c6c6572206973206e6f74206f6040820152701ddb995c881b9bdc88185c1c1c9bdd9959607a1b606082015260800190565b6000821982111561256357612563612648565b500190565b6000826125775761257761265e565b500490565b600081600019048311821515161561259657612596612648565b500290565b6000828210156125ad576125ad612648565b500390565b60005b838110156125cd5781810151838201526020016125b5565b83811115610de15750506000910152565b600181811c908216806125f257607f821691505b6020821081141561261357634e487b7160e01b600052602260045260246000fd5b50919050565b600060001982141561262d5761262d612648565b5060010190565b6000826126435761264361265e565b500690565b634e487b7160e01b600052601160045260246000fd5b634e487b7160e01b600052601260045260246000fd5b634e487b7160e01b600052604160045260246000fd5b6001600160e01b031981168114610ab457600080fdfea26469706673582212203ae591e983fe8a7ec65c1c1d4e9d6c1616bdbddda6493c1c93512c0b4f18021b64736f6c63430008040033",
  "linkReferences": {},
  "deployedLinkReferences": {}
}