{
  "_format": "hh-sol-artifact-1",
  "contractName": "CardProtocol",
  "sourceName": "contracts/OpenCard.sol",
  "abi": [
    {
      "inputs": [
        {
          "internalType": "address",
          "name": "_meta",
          "type": "address"
        }
      ],
      "stateMutability": "nonpayable",
      "type": "constructor"
    },
    {
      "anonymous": false,
      "inputs": [
        {
          "indexed": true,
          "internalType": "address",
          "name": "addr",
          "type": "address"
        },
        {
          "indexed": true,
          "internalType": "uint256",
          "name": "vol",
          "type": "uint256"
        },
        {
          "indexed": false,
          "internalType": "uint256",
          "name": "coin_index",
          "type": "uint256"
        }
      ],
      "name": "Open",
      "type": "event"
    },
    {
      "anonymous": false,
      "inputs": [
        {
          "indexed": true,
          "internalType": "address",
          "name": "previousOwner",
          "type": "address"
        },
        {
          "indexed": true,
          "internalType": "address",
          "name": "newOwner",
          "type": "address"
        }
      ],
      "name": "OwnershipTransferred",
      "type": "event"
    },
    {
      "inputs": [],
      "name": "claim",
      "outputs": [],
      "stateMutability": "nonpayable",
      "type": "function"
    },
    {
      "inputs": [
        {
          "internalType": "uint256",
          "name": "",
          "type": "uint256"
        }
      ],
      "name": "claim_limit",
      "outputs": [
        {
          "internalType": "uint256",
          "name": "",
          "type": "uint256"
        }
      ],
      "stateMutability": "view",
      "type": "function"
    },
    {
      "inputs": [],
      "name": "clearReward",
      "outputs": [],
      "stateMutability": "nonpayable",
      "type": "function"
    },
    {
      "inputs": [
        {
          "internalType": "uint256",
          "name": "",
          "type": "uint256"
        }
      ],
      "name": "coin_decimals",
      "outputs": [
        {
          "internalType": "uint256",
          "name": "",
          "type": "uint256"
        }
      ],
      "stateMutability": "view",
      "type": "function"
    },
    {
      "inputs": [
        {
          "internalType": "uint256",
          "name": "",
          "type": "uint256"
        }
      ],
      "name": "coins_addr",
      "outputs": [
        {
          "internalType": "address",
          "name": "",
          "type": "address"
        }
      ],
      "stateMutability": "view",
      "type": "function"
    },
    {
      "inputs": [
        {
          "internalType": "uint256",
          "name": "_index",
          "type": "uint256"
        }
      ],
      "name": "getCoinPrice",
      "outputs": [
        {
          "internalType": "uint256",
          "name": "",
          "type": "uint256"
        }
      ],
      "stateMutability": "view",
      "type": "function"
    },
    {
      "inputs": [],
      "name": "getDecimals",
      "outputs": [
        {
          "internalType": "uint256[4]",
          "name": "",
          "type": "uint256[4]"
        }
      ],
      "stateMutability": "view",
      "type": "function"
    },
    {
      "inputs": [],
      "name": "getPcsDecimals",
      "outputs": [
        {
          "internalType": "uint256[4]",
          "name": "",
          "type": "uint256[4]"
        }
      ],
      "stateMutability": "view",
      "type": "function"
    },
    {
      "inputs": [],
      "name": "getUserRewards",
      "outputs": [
        {
          "internalType": "uint256[4]",
          "name": "",
          "type": "uint256[4]"
        }
      ],
      "stateMutability": "view",
      "type": "function"
    },
    {
      "inputs": [
        {
          "internalType": "uint256",
          "name": "_user_number",
          "type": "uint256"
        }
      ],
      "name": "open",
      "outputs": [],
      "stateMutability": "payable",
      "type": "function"
    },
    {
      "inputs": [
        {
          "internalType": "uint256",
          "name": "_user_number",
          "type": "uint256"
        }
      ],
      "name": "open_test",
      "outputs": [],
      "stateMutability": "payable",
      "type": "function"
    },
    {
      "inputs": [],
      "name": "owner",
      "outputs": [
        {
          "internalType": "address",
          "name": "",
          "type": "address"
        }
      ],
      "stateMutability": "view",
      "type": "function"
    },
    {
      "inputs": [
        {
          "internalType": "uint256",
          "name": "",
          "type": "uint256"
        }
      ],
      "name": "pcs_decimals",
      "outputs": [
        {
          "internalType": "uint256",
          "name": "",
          "type": "uint256"
        }
      ],
      "stateMutability": "view",
      "type": "function"
    },
    {
      "inputs": [
        {
          "internalType": "uint256",
          "name": "",
          "type": "uint256"
        }
      ],
      "name": "prize_value",
      "outputs": [
        {
          "internalType": "uint256",
          "name": "",
          "type": "uint256"
        }
      ],
      "stateMutability": "view",
      "type": "function"
    },
    {
      "inputs": [
        {
          "internalType": "uint256",
          "name": "",
          "type": "uint256"
        }
      ],
      "name": "probs",
      "outputs": [
        {
          "internalType": "uint256",
          "name": "",
          "type": "uint256"
        }
      ],
      "stateMutability": "view",
      "type": "function"
    },
    {
      "inputs": [],
      "name": "renounceOwnership",
      "outputs": [],
      "stateMutability": "nonpayable",
      "type": "function"
    },
    {
      "inputs": [
        {
          "internalType": "address",
          "name": "",
          "type": "address"
        },
        {
          "internalType": "uint256",
          "name": "",
          "type": "uint256"
        }
      ],
      "name": "rewards",
      "outputs": [
        {
          "internalType": "uint256",
          "name": "",
          "type": "uint256"
        }
      ],
      "stateMutability": "view",
      "type": "function"
    },
    {
      "inputs": [
        {
          "internalType": "uint256",
          "name": "val1",
          "type": "uint256"
        },
        {
          "internalType": "uint256",
          "name": "val2",
          "type": "uint256"
        },
        {
          "internalType": "uint256",
          "name": "val3",
          "type": "uint256"
        },
        {
          "internalType": "uint256",
          "name": "val4",
          "type": "uint256"
        }
      ],
      "name": "setClaimLimits",
      "outputs": [],
      "stateMutability": "nonpayable",
      "type": "function"
    },
    {
      "inputs": [
        {
          "internalType": "address",
          "name": "_meta",
          "type": "address"
        }
      ],
      "name": "setMetaCoin",
      "outputs": [],
      "stateMutability": "nonpayable",
      "type": "function"
    },
    {
      "inputs": [
        {
          "internalType": "uint256",
          "name": "_open_cost",
          "type": "uint256"
        }
      ],
      "name": "setOpenCost",
      "outputs": [],
      "stateMutability": "nonpayable",
      "type": "function"
    },
    {
      "inputs": [
        {
          "internalType": "uint256[6]",
          "name": "_prob_vals",
          "type": "uint256[6]"
        },
        {
          "internalType": "uint256[6]",
          "name": "_prize_vals",
          "type": "uint256[6]"
        }
      ],
      "name": "setProbs",
      "outputs": [],
      "stateMutability": "nonpayable",
      "type": "function"
    },
    {
      "inputs": [
        {
          "internalType": "bool",
          "name": "_flag",
          "type": "bool"
        }
      ],
      "name": "setStop",
      "outputs": [],
      "stateMutability": "nonpayable",
      "type": "function"
    },
    {
      "inputs": [
        {
          "internalType": "address",
          "name": "newOwner",
          "type": "address"
        }
      ],
      "name": "transferOwnership",
      "outputs": [],
      "stateMutability": "nonpayable",
      "type": "function"
    },
    {
      "inputs": [
        {
          "internalType": "address",
          "name": "",
          "type": "address"
        }
      ],
      "name": "usertest",
      "outputs": [
        {
          "internalType": "uint256",
          "name": "",
          "type": "uint256"
        }
      ],
      "stateMutability": "view",
      "type": "function"
    },
    {
      "inputs": [],
      "name": "withdraw",
      "outputs": [],
      "stateMutability": "nonpayable",
      "type": "function"
    },
    {
      "inputs": [
        {
          "internalType": "address",
          "name": "addr",
          "type": "address"
        }
      ],
      "name": "withdrawByAddress",
      "outputs": [],
      "stateMutability": "nonpayable",
      "type": "function"
    }
  ],
  "bytecode": "0x6080604052604051620000129062000556565b604051809103906000f0801580156200002f573d6000803e3d6000fd5b50600580546001600160a01b0319166001600160a01b03929092169190911790556040805160c0810182526001815260046020820152600a9181019190915260146060820152601e6080820152606460a08201526200009390601690600662000564565b506040805160c08101825260328152600f60208201526007918101919091526005606082015260046080820152600260a0820152620000d790601c90600662000564565b50348015620000e557600080fd5b5060405162002c8a38038062002c8a8339810160408190526200010891620005c3565b6200011333620004e1565b6000805460ff60a01b19169055600180546001600160a01b0319166001600160a01b0383169081179091556040805163313ce56760e01b8152905163313ce56791600480820192602092909190829003018186803b1580156200017557600080fd5b505afa1580156200018a573d6000803e3d6000fd5b505050506040513d601f19601f82011682018060405250810190620001b091906200060c565b620001bd90600a620006a7565b600255600680546001600160a01b0383166001600160a01b03199182168117909255600780548216831790556008805482168317905560098054909116821790556040805163313ce56760e01b8152905163313ce56791600480820192602092909190829003018186803b1580156200023557600080fd5b505afa1580156200024a573d6000803e3d6000fd5b505050506040513d601f19601f820116820180604052508101906200027091906200060c565b6200027d90600a620006a7565b600e5560015b6004811015620003565760055460405160016217a03d60e31b03198152600481018390526001600160a01b039091169063ff42fe189060240160206040518083038186803b158015620002d557600080fd5b505afa158015620002ea573d6000803e3d6000fd5b505050506040513d601f19601f82011682018060405250810190620003109190620005f3565b6200031d90600a62000699565b600e82600481106200033f57634e487b7160e01b600052603260045260246000fd5b0155806200034d8162000789565b91505062000283565b5060005b60048110156200045557600681600481106200038657634e487b7160e01b600052603260045260246000fd5b0160009054906101000a90046001600160a01b03166001600160a01b031663313ce5676040518163ffffffff1660e01b815260040160206040518083038186803b158015620003d457600080fd5b505afa158015620003e9573d6000803e3d6000fd5b505050506040513d601f19601f820116820180604052508101906200040f91906200060c565b6200041c90600a620006a7565b601282600481106200043e57634e487b7160e01b600052603260045260246000fd5b0155806200044c8162000789565b9150506200035a565b50620004776032601260005b01546200053160201b62001c5d1790919060201c565b600a600001556200049e600a601260015b01546200054860201b62001c721790919060201c565b600b55620004b160646012600262000488565b600c55620004c460646012600362000461565b600d55600254620004d79060fa62000767565b60035550620007bd565b600080546001600160a01b038381166001600160a01b0319831681178455604051919092169283917f8be0079c531659141344cd1fd0a4f28419497f9722a3daafe3b4186f6b6457e09190a35050565b60006200053f828462000767565b90505b92915050565b60006200053f82846200062f565b6103b080620028da83390190565b82600681019282156200059a579160200282015b828111156200059a578251829060ff1690559160200191906001019062000578565b50620005a8929150620005ac565b5090565b5b80821115620005a85760008155600101620005ad565b600060208284031215620005d5578081fd5b81516001600160a01b0381168114620005ec578182fd5b9392505050565b60006020828403121562000605578081fd5b5051919050565b6000602082840312156200061e578081fd5b815160ff81168114620005ec578182fd5b6000826200064b57634e487b7160e01b81526012600452602481fd5b500490565b600181815b8085111562000691578160001904821115620006755762000675620007a7565b808516156200068357918102915b93841c939080029062000655565b509250929050565b60006200053f8383620006b3565b60006200053f60ff8416835b600082620006c45750600162000542565b81620006d35750600062000542565b8160018114620006ec5760028114620006f75762000717565b600191505062000542565b60ff8411156200070b576200070b620007a7565b50506001821b62000542565b5060208310610133831016604e8410600b84101617156200073c575081810a62000542565b62000748838362000650565b80600019048211156200075f576200075f620007a7565b029392505050565b6000816000190483118215151615620007845762000784620007a7565b500290565b6000600019821415620007a057620007a0620007a7565b5060010190565b634e487b7160e01b600052601160045260246000fd5b61210d80620007cd6000396000f3fe6080604052600436106101815760003560e01c80638da5cb5b116100d1578063d4158d031161008a578063f0f16d0b11610064578063f0f16d0b1461042b578063f2fde38b14610440578063f3c70e5714610460578063f5fc3e581461048057600080fd5b8063d4158d03146103e1578063e2efdfc2146103f6578063f0141d841461041657600080fd5b80638da5cb5b1461031a578063ad77702d1461034c578063b933ceac1461036c578063c0d185021461038c578063c5167e6a146103ae578063cc91f631146103c157600080fd5b8063575ccd151161013e578063690e7c0911610118578063690e7c09146102b25780636a5259f0146102c55780636e2e8243146102e5578063715018a61461030557600080fd5b8063575ccd15146102525780635ecee08214610272578063641657cb1461029257600080fd5b806317a1bd80146101865780633ccfd60b146101a857806348bb9c37146101bd5780634e0b6e2a146101fd5780634e71d92d1461021d5780634ece47b614610232575b600080fd5b34801561019257600080fd5b506101a66101a1366004611dca565b6104a0565b005b3480156101b457600080fd5b506101a6610586565b3480156101c957600080fd5b506101ea6101d8366004611d87565b60246020526000908152604090205481565b6040519081526020015b60405180910390f35b34801561020957600080fd5b506101ea610218366004611e37565b610856565b34801561022957600080fd5b506101a661086d565b34801561023e57600080fd5b506101ea61024d366004611e37565b610ae0565b34801561025e57600080fd5b506101a661026d366004611d87565b610b68565b34801561027e57600080fd5b506101a661028d366004611e67565b610c2f565b34801561029e57600080fd5b506101a66102ad366004611dff565b610ca7565b6101a66102c0366004611e37565b610cef565b3480156102d157600080fd5b506101ea6102e0366004611e37565b6113a3565b3480156102f157600080fd5b506101a6610300366004611d87565b6113b3565b34801561031157600080fd5b506101a66114fa565b34801561032657600080fd5b506000546001600160a01b03165b6040516001600160a01b0390911681526020016101f4565b34801561035857600080fd5b506101ea610367366004611e37565b611530565b34801561037857600080fd5b506101ea610387366004611da1565b611540565b34801561039857600080fd5b506103a1611565565b6040516101f49190611ed6565b6101a66103bc366004611e37565b6115ac565b3480156103cd57600080fd5b506103346103dc366004611e37565b611a32565b3480156103ed57600080fd5b506101a6611a52565b34801561040257600080fd5b506101ea610411366004611e37565b611afc565b34801561042257600080fd5b506103a1611b0c565b34801561043757600080fd5b506103a1611b42565b34801561044c57600080fd5b506101a661045b366004611d87565b611b78565b34801561046c57600080fd5b506101a661047b366004611e37565b611c10565b34801561048c57600080fd5b506101ea61049b366004611e37565b611c4d565b6000546001600160a01b031633146104d35760405162461bcd60e51b81526004016104ca90611f07565b60405180910390fd5b60005b6006811015610581578281600681106104ff57634e487b7160e01b600052603260045260246000fd5b60200201516016826006811061052557634e487b7160e01b600052603260045260246000fd5b015581816006811061054757634e487b7160e01b600052603260045260246000fd5b6020020151601c826006811061056d57634e487b7160e01b600052603260045260246000fd5b01558061057981612098565b9150506104d6565b505050565b6000546001600160a01b031633146105b05760405162461bcd60e51b81526004016104ca90611f07565b6000805b600481101561073057600681600481106105de57634e487b7160e01b600052603260045260246000fd5b01546040516370a0823160e01b81523060048201526001600160a01b03909116906370a082319060240160206040518083038186803b15801561062057600080fd5b505afa158015610634573d6000803e3d6000fd5b505050506040513d601f19601f820116820180604052508101906106589190611e4f565b91506006816004811061067b57634e487b7160e01b600052603260045260246000fd5b01546001600160a01b031663a9059cbb61069d6000546001600160a01b031690565b6040516001600160e01b031960e084901b1681526001600160a01b03909116600482015260248101859052604401602060405180830381600087803b1580156106e557600080fd5b505af11580156106f9573d6000803e3d6000fd5b505050506040513d601f19601f8201168201806040525081019061071d9190611e1b565b508061072881612098565b9150506105b4565b506001546040516370a0823160e01b81523060048201526001600160a01b03909116906370a082319060240160206040518083038186803b15801561077457600080fd5b505afa158015610788573d6000803e3d6000fd5b505050506040513d601f19601f820116820180604052508101906107ac9190611e4f565b6001549091506001600160a01b031663a9059cbb6107d26000546001600160a01b031690565b6040516001600160e01b031960e084901b1681526001600160a01b03909116600482015260248101849052604401602060405180830381600087803b15801561081a57600080fd5b505af115801561082e573d6000803e3d6000fd5b505050506040513d601f19601f820116820180604052508101906108529190611e1b565b5050565b600a816004811061086657600080fd5b0154905081565b600054600160a01b900460ff161515600114156108b85760405162461bcd60e51b8152602060048201526009602482015268067616d652073746f760bc1b60448201526064016104ca565b6000805b600481101561085257600681600481106108e657634e487b7160e01b600052603260045260246000fd5b01546040516370a0823160e01b81523060048201526001600160a01b03909116906370a082319060240160206040518083038186803b15801561092857600080fd5b505afa15801561093c573d6000803e3d6000fd5b505050506040513d601f19601f820116820180604052508101906109609190611e4f565b9150600a816004811061098357634e487b7160e01b600052603260045260246000fd5b015433600090815260226020526040902082600481106109b357634e487b7160e01b600052603260045260246000fd5b01541180156109e35750600a81600481106109de57634e487b7160e01b600052603260045260246000fd5b015482115b15610ace5760068160048110610a0957634e487b7160e01b600052603260045260246000fd5b01543360008181526022602052604090206001600160a01b039092169163a9059cbb91908460048110610a4c57634e487b7160e01b600052603260045260246000fd5b01546040516001600160e01b031960e085901b1681526001600160a01b0390921660048301526024820152604401602060405180830381600087803b158015610a9457600080fd5b505af1158015610aa8573d6000803e3d6000fd5b505050506040513d601f19601f82011682018060405250810190610acc9190611e1b565b505b80610ad881612098565b9150506108bc565b60055460405163b94fe91760e01b81526004810183905260009182916001600160a01b039091169063b94fe9179060240160206040518083038186803b158015610b2957600080fd5b505afa158015610b3d573d6000803e3d6000fd5b505050506040513d601f19601f82011682018060405250810190610b619190611e4f565b9392505050565b6000546001600160a01b03163314610b925760405162461bcd60e51b81526004016104ca90611f07565b600180546001600160a01b0319166001600160a01b0383169081179091556040805163313ce56760e01b8152905163313ce56791600480820192602092909190829003018186803b158015610be657600080fd5b505afa158015610bfa573d6000803e3d6000fd5b505050506040513d601f19601f82011682018060405250810190610c1e9190611e98565b610c2990600a611fb7565b60025550565b6000546001600160a01b03163314610c595760405162461bcd60e51b81526004016104ca90611f07565b610c6a84601260005b015490611c5d565b600a55610c7e83601260015b015490611c72565b600b55610c8e8260126002610c76565b600c55610c9e8160126003610c62565b600d5550505050565b6000546001600160a01b03163314610cd15760405162461bcd60e51b81526004016104ca90611f07565b60008054911515600160a01b0260ff60a01b19909216919091179055565b600054600160a01b900460ff16151560011415610d3a5760405162461bcd60e51b8152602060048201526009602482015268067616d652073746f760bc1b60448201526064016104ca565b600a8110610d815760405162461bcd60e51b815260206004820152601460248201527363617264206e756d6265722069732077726f6e6760601b60448201526064016104ca565b6001546040516370a0823160e01b81523360048201526000916001600160a01b0316906370a082319060240160206040518083038186803b158015610dc557600080fd5b505afa158015610dd9573d6000803e3d6000fd5b505050506040513d601f19601f82011682018060405250810190610dfd9190611e4f565b90506003548111610e495760405162461bcd60e51b81526020600482015260166024820152750dacae8c240c2dadeeadce840dcdee840cadcdeeaced60531b60448201526064016104ca565b6001546003546040516323b872dd60e01b815233600482015230602482015260448101919091526001600160a01b03909116906323b872dd90606401602060405180830381600087803b158015610e9f57600080fd5b505af1158015610eb3573d6000803e3d6000fd5b505050506040513d601f19601f82011682018060405250810190610ed79190611e1b565b50600082434233604051602001610eee9190611eb9565b6040516020818303038152906040528051906020012060001c610f119190611f54565b454241604051602001610f249190611eb9565b6040516020818303038152906040528051906020012060001c610f479190611f54565b610f514442611f3c565b610f5b9190611f3c565b610f659190611f3c565b610f6f9190611f3c565b610f799190611f3c565b610f839190611f3c565b604051602001610f9591815260200190565b60408051601f19818403018152919052805160209091012090506000610fbc606483611f54565b610fc7906064612062565b610fd19083612081565b905060006004610fe18185611f54565b610feb9190612062565b610ff59084612081565b600e54909150600082156110825760055460405163b94fe91760e01b8152600481018590526001600160a01b039091169063b94fe9179060240160206040518083038186803b15801561104757600080fd5b505afa15801561105b573d6000803e3d6000fd5b505050506040513d601f19601f8201168201806040525081019061107f9190611e4f565b91505b601654841015611144576110f6600e84600481106110b057634e487b7160e01b600052603260045260246000fd5b01546110f084601287600481106110d757634e487b7160e01b600052603260045260246000fd5b0154601c60005b01546110ea9190612062565b90611c72565b90611c5d565b3360009081526022602052604090209091508190846004811061112957634e487b7160e01b600052603260045260246000fd5b0160008282546111399190611f3c565b909155506113639050565b6017548410156111a4576110f6600e846004811061117257634e487b7160e01b600052603260045260246000fd5b01546110f0846012876004811061119957634e487b7160e01b600052603260045260246000fd5b0154601c60016110de565b601854841015611204576110f6600e84600481106111d257634e487b7160e01b600052603260045260246000fd5b01546110f084601287600481106111f957634e487b7160e01b600052603260045260246000fd5b0154601c60026110de565b601954841015611264576110f6600e846004811061123257634e487b7160e01b600052603260045260246000fd5b01546110f0846012876004811061125957634e487b7160e01b600052603260045260246000fd5b0154601c60036110de565b601a548410156112c4576110f6600e846004811061129257634e487b7160e01b600052603260045260246000fd5b01546110f084601287600481106112b957634e487b7160e01b600052603260045260246000fd5b0154601c60046110de565b61131a600e84600481106112e857634e487b7160e01b600052603260045260246000fd5b01546110f0846012876004811061130f57634e487b7160e01b600052603260045260246000fd5b0154601c60056110de565b3360009081526022602052604090209091508190846004811061134d57634e487b7160e01b600052603260045260246000fd5b01600082825461135d9190611f3c565b90915550505b604051838152819033907f5e3c8f6b552a3ff0e973b330d0768aa08ae9dfb0106405d51377c98e032e9b069060200160405180910390a350505050505050565b600e816004811061086657600080fd5b6000546001600160a01b031633146113dd5760405162461bcd60e51b81526004016104ca90611f07565b6040516370a0823160e01b81523060048201526000906001600160a01b038316906370a082319060240160206040518083038186803b15801561141f57600080fd5b505afa158015611433573d6000803e3d6000fd5b505050506040513d601f19601f820116820180604052508101906114579190611e4f565b9050816001600160a01b031663a9059cbb61147a6000546001600160a01b031690565b6040516001600160e01b031960e084901b1681526001600160a01b03909116600482015260248101849052604401602060405180830381600087803b1580156114c257600080fd5b505af11580156114d6573d6000803e3d6000fd5b505050506040513d601f19601f820116820180604052508101906105819190611e1b565b6000546001600160a01b031633146115245760405162461bcd60e51b81526004016104ca90611f07565b61152e6000611c7e565b565b6012816004811061086657600080fd5b6022602052816000526040600020816004811061155c57600080fd5b01549150829050565b61156d611cce565b3360009081526022602052604090819020815160808101928390529160049082845b81548152602001906001019080831161158f575050505050905090565b600a81106115f35760405162461bcd60e51b815260206004820152601460248201527363617264206e756d6265722069732077726f6e6760601b60448201526064016104ca565b336000908152602460205260409020541561163e5760405162461bcd60e51b815260206004820152600b60248201526a1a185d99481c1b185e595960aa1b60448201526064016104ca565b33600081815260246020908152604080832060019081905560238054918201815584527fd57b2b5166478fd4318d2acc6cc2c704584312bdd8781b32d5d06abda57f42300180546001600160a01b031916851790555191928492439242926116a892909101611eb9565b6040516020818303038152906040528051906020012060001c6116cb9190611f54565b4542416040516020016116de9190611eb9565b6040516020818303038152906040528051906020012060001c6117019190611f54565b61170b4442611f3c565b6117159190611f3c565b61171f9190611f3c565b6117299190611f3c565b6117339190611f3c565b61173d9190611f3c565b60405160200161174f91815260200190565b60408051601f19818403018152919052805160209091012090506000611776606483611f54565b611781906064612062565b61178b9083612081565b90506000600461179b8185611f54565b6117a59190612062565b6117af9084612081565b600e549091506000821561183c5760055460405163b94fe91760e01b8152600481018590526001600160a01b039091169063b94fe9179060240160206040518083038186803b15801561180157600080fd5b505afa158015611815573d6000803e3d6000fd5b505050506040513d601f19601f820116820180604052508101906118399190611e4f565b91505b6016548410156118c35761186a600e84600481106110b057634e487b7160e01b600052603260045260246000fd5b611875906032612062565b336000908152602260205260409020909150819084600481106118a857634e487b7160e01b600052603260045260246000fd5b0160008282546118b89190611f3c565b909155506119f39050565b6017548410156118f15761186a600e846004811061117257634e487b7160e01b600052603260045260246000fd5b60185484101561191f5761186a600e84600481106111d257634e487b7160e01b600052603260045260246000fd5b60195484101561194d5761186a600e846004811061123257634e487b7160e01b600052603260045260246000fd5b601a5484101561197b5761186a600e846004811061129257634e487b7160e01b600052603260045260246000fd5b61199f600e84600481106112e857634e487b7160e01b600052603260045260246000fd5b6119aa906032612062565b336000908152602260205260409020909150819084600481106119dd57634e487b7160e01b600052603260045260246000fd5b0160008282546119ed9190611f3c565b90915550505b604051838152819033907f5e3c8f6b552a3ff0e973b330d0768aa08ae9dfb0106405d51377c98e032e9b069060200160405180910390a3505050505050565b60068160048110611a4257600080fd5b01546001600160a01b0316905081565b6000546001600160a01b03163314611a7c5760405162461bcd60e51b81526004016104ca90611f07565b60005b602354811015611af9576022600060238381548110611aae57634e487b7160e01b600052603260045260246000fd5b60009182526020808320909101546001600160a01b03168352820192909252604001812081815560018101829055600281018290556003015580611af181612098565b915050611a7f565b50565b601c816006811061086657600080fd5b611b14611cce565b604080516080810191829052601280548252909160049060136020850180831161158f575050505050905090565b611b4a611cce565b604080516080810191829052600e805482529091600490600f6020850180831161158f575050505050905090565b6000546001600160a01b03163314611ba25760405162461bcd60e51b81526004016104ca90611f07565b6001600160a01b038116611c075760405162461bcd60e51b815260206004820152602660248201527f4f776e61626c653a206e6577206f776e657220697320746865207a65726f206160448201526564647265737360d01b60648201526084016104ca565b611af981611c7e565b6000546001600160a01b03163314611c3a5760405162461bcd60e51b81526004016104ca90611f07565b600254611c479082612062565b60035550565b6016816006811061086657600080fd5b6000611c698284612062565b90505b92915050565b6000611c698284611f54565b600080546001600160a01b038381166001600160a01b0319831681178455604051919092169283917f8be0079c531659141344cd1fd0a4f28419497f9722a3daafe3b4186f6b6457e09190a35050565b60405180608001604052806004906020820280368337509192915050565b80356001600160a01b0381168114611d0357600080fd5b919050565b600082601f830112611d18578081fd5b60405160c0810181811067ffffffffffffffff82111715611d4757634e487b7160e01b83526041600452602483fd5b604052808360c08101861015611d5b578384fd5b835b6006811015611d7c578135835260209283019290910190600101611d5d565b509195945050505050565b600060208284031215611d98578081fd5b611c6982611cec565b60008060408385031215611db3578081fd5b611dbc83611cec565b946020939093013593505050565b6000806101808385031215611ddd578182fd5b611de78484611d08565b9150611df68460c08501611d08565b90509250929050565b600060208284031215611e10578081fd5b8135610b61816120c9565b600060208284031215611e2c578081fd5b8151610b61816120c9565b600060208284031215611e48578081fd5b5035919050565b600060208284031215611e60578081fd5b5051919050565b60008060008060808587031215611e7c578182fd5b5050823594602084013594506040840135936060013592509050565b600060208284031215611ea9578081fd5b815160ff81168114610b61578182fd5b60609190911b6bffffffffffffffffffffffff1916815260140190565b60808101818360005b6004811015611efe578151835260209283019290910190600101611edf565b50505092915050565b6020808252818101527f4f776e61626c653a2063616c6c6572206973206e6f7420746865206f776e6572604082015260600190565b60008219821115611f4f57611f4f6120b3565b500190565b600082611f6f57634e487b7160e01b81526012600452602481fd5b500490565b600181815b80851115611faf578160001904821115611f9557611f956120b3565b80851615611fa257918102915b93841c9390800290611f79565b509250929050565b6000611c6960ff841683600082611fd057506001611c6c565b81611fdd57506000611c6c565b8160018114611ff35760028114611ffd57612019565b6001915050611c6c565b60ff84111561200e5761200e6120b3565b50506001821b611c6c565b5060208310610133831016604e8410600b841016171561203c575081810a611c6c565b6120468383611f74565b806000190482111561205a5761205a6120b3565b029392505050565b600081600019048311821515161561207c5761207c6120b3565b500290565b600082821015612093576120936120b3565b500390565b60006000198214156120ac576120ac6120b3565b5060010190565b634e487b7160e01b600052601160045260246000fd5b8015158114611af957600080fdfea2646970667358221220072167c757e3d98aea5748ff826fa7cb433ac32b6a6613b7df796ab1ed865e1d64736f6c63430008040033608060405234801561001057600080fd5b50600080546001600160a01b031990811673963d5e7f285cc84ed566c486c3c1bc911291be3890811783556001805483169091179055600280548216735e66a1775bbc249b5d51c13d29245522582e671c17905560038054909116735741306c21795fdcbb9b265ea0255f499dfe515c17905561031d90819061009390396000f3fe608060405234801561001057600080fd5b50600436106100415760003560e01c80635509fa8d14610046578063b94fe91714610076578063ff42fe1814610097575b600080fd5b610059610054366004610258565b6100aa565b6040516001600160a01b0390911681526020015b60405180910390f35b610089610084366004610258565b6100ca565b60405190815260200161006d565b6100896100a5366004610258565b610189565b600081600481106100ba57600080fd5b01546001600160a01b0316905081565b600080600080600080600087600481106100f457634e487b7160e01b600052603260045260246000fd5b0160009054906101000a90046001600160a01b03166001600160a01b031663feaf968c6040518163ffffffff1660e01b815260040160a06040518083038186803b15801561014157600080fd5b505afa158015610155573d6000803e3d6000fd5b505050506040513d601f19601f820116820180604052508101906101799190610270565b50919a9950505050505050505050565b60008082600481106101ab57634e487b7160e01b600052603260045260246000fd5b0160009054906101000a90046001600160a01b03166001600160a01b031663313ce5676040518163ffffffff1660e01b815260040160206040518083038186803b1580156101f857600080fd5b505afa15801561020c573d6000803e3d6000fd5b505050506040513d601f19601f8201168201806040525081019061023091906102bf565b60ff1692915050565b805169ffffffffffffffffffff8116811461025357600080fd5b919050565b600060208284031215610269578081fd5b5035919050565b600080600080600060a08688031215610287578081fd5b61029086610239565b94506020860151935060408601519250606086015191506102b360808701610239565b90509295509295909350565b6000602082840312156102d0578081fd5b815160ff811681146102e0578182fd5b939250505056fea26469706673582212203e3a8e5c6791ecb814b669cda470f8cfb2f41f0acdb0665711260a51a516c28664736f6c63430008040033",
  "linkReferences": {},
  "deployedLinkReferences": {}
}