{
  "_format": "hh-sol-artifact-1",
  "contractName": "PriceConsumerV3",
  "sourceName": "contracts/OpenCard.sol",
  "abi": [
    {
      "inputs": [],
      "stateMutability": "nonpayable",
      "type": "constructor"
    },
    {
      "inputs": [
        {
          "internalType": "uint256",
          "name": "",
          "type": "uint256"
        }
      ],
      "name": "aggv3map",
      "outputs": [
        {
          "internalType": "contract AggregatorV3Interface",
          "name": "",
          "type": "address"
        }
      ],
      "stateMutability": "view",
      "type": "function"
    },
    {
      "inputs": [
        {
          "internalType": "uint256",
          "name": "index",
          "type": "uint256"
        }
      ],
      "name": "getDecimals",
      "outputs": [
        {
          "internalType": "uint256",
          "name": "",
          "type": "uint256"
        }
      ],
      "stateMutability": "view",
      "type": "function"
    },
    {
      "inputs": [
        {
          "internalType": "uint256",
          "name": "index",
          "type": "uint256"
        }
      ],
      "name": "getLatestPrice",
      "outputs": [
        {
          "internalType": "uint256",
          "name": "",
          "type": "uint256"
        }
      ],
      "stateMutability": "view",
      "type": "function"
    }
  ],
  "bytecode": "0x608060405234801561001057600080fd5b50600080546001600160a01b031990811673963d5e7f285cc84ed566c486c3c1bc911291be3890811783556001805483169091179055600280548216735e66a1775bbc249b5d51c13d29245522582e671c17905560038054909116735741306c21795fdcbb9b265ea0255f499dfe515c17905561031d90819061009390396000f3fe608060405234801561001057600080fd5b50600436106100415760003560e01c80635509fa8d14610046578063b94fe91714610076578063ff42fe1814610097575b600080fd5b610059610054366004610258565b6100aa565b6040516001600160a01b0390911681526020015b60405180910390f35b610089610084366004610258565b6100ca565b60405190815260200161006d565b6100896100a5366004610258565b610189565b600081600481106100ba57600080fd5b01546001600160a01b0316905081565b600080600080600080600087600481106100f457634e487b7160e01b600052603260045260246000fd5b0160009054906101000a90046001600160a01b03166001600160a01b031663feaf968c6040518163ffffffff1660e01b815260040160a06040518083038186803b15801561014157600080fd5b505afa158015610155573d6000803e3d6000fd5b505050506040513d601f19601f820116820180604052508101906101799190610270565b50919a9950505050505050505050565b60008082600481106101ab57634e487b7160e01b600052603260045260246000fd5b0160009054906101000a90046001600160a01b03166001600160a01b031663313ce5676040518163ffffffff1660e01b815260040160206040518083038186803b1580156101f857600080fd5b505afa15801561020c573d6000803e3d6000fd5b505050506040513d601f19601f8201168201806040525081019061023091906102bf565b60ff1692915050565b805169ffffffffffffffffffff8116811461025357600080fd5b919050565b600060208284031215610269578081fd5b5035919050565b600080600080600060a08688031215610287578081fd5b61029086610239565b94506020860151935060408601519250606086015191506102b360808701610239565b90509295509295909350565b6000602082840312156102d0578081fd5b815160ff811681146102e0578182fd5b939250505056fea26469706673582212203e3a8e5c6791ecb814b669cda470f8cfb2f41f0acdb0665711260a51a516c28664736f6c63430008040033",
  "linkReferences": {},
  "deployedLinkReferences": {}
}