{
  "_format": "hh-sol-artifact-1",
  "contractName": "MetaPreSale",
  "sourceName": "contracts/IDO.sol",
  "abi": [
    {
      "inputs": [
        {
          "internalType": "address",
          "name": "_baseToken",
          "type": "address"
        },
        {
          "internalType": "address",
          "name": "_coin",
          "type": "address"
        }
      ],
      "stateMutability": "nonpayable",
      "type": "constructor"
    },
    {
      "anonymous": false,
      "inputs": [
        {
          "indexed": true,
          "internalType": "address",
          "name": "buy",
          "type": "address"
        },
        {
          "indexed": true,
          "internalType": "uint256",
          "name": "amount",
          "type": "uint256"
        }
      ],
      "name": "Buy",
      "type": "event"
    },
    {
      "anonymous": false,
      "inputs": [
        {
          "indexed": true,
          "internalType": "address",
          "name": "previousOwner",
          "type": "address"
        },
        {
          "indexed": true,
          "internalType": "address",
          "name": "newOwner",
          "type": "address"
        }
      ],
      "name": "OwnershipTransferred",
      "type": "event"
    },
    {
      "inputs": [],
      "name": "baseToken",
      "outputs": [
        {
          "internalType": "address",
          "name": "",
          "type": "address"
        }
      ],
      "stateMutability": "view",
      "type": "function"
    },
    {
      "inputs": [
        {
          "internalType": "uint256",
          "name": "_usdt_amount",
          "type": "uint256"
        }
      ],
      "name": "buy",
      "outputs": [],
      "stateMutability": "nonpayable",
      "type": "function"
    },
    {
      "inputs": [],
      "name": "coin",
      "outputs": [
        {
          "internalType": "address",
          "name": "",
          "type": "address"
        }
      ],
      "stateMutability": "view",
      "type": "function"
    },
    {
      "inputs": [],
      "name": "owner",
      "outputs": [
        {
          "internalType": "address",
          "name": "",
          "type": "address"
        }
      ],
      "stateMutability": "view",
      "type": "function"
    },
    {
      "inputs": [],
      "name": "ratio",
      "outputs": [
        {
          "internalType": "uint256",
          "name": "",
          "type": "uint256"
        }
      ],
      "stateMutability": "view",
      "type": "function"
    },
    {
      "inputs": [],
      "name": "renounceOwnership",
      "outputs": [],
      "stateMutability": "nonpayable",
      "type": "function"
    },
    {
      "inputs": [
        {
          "internalType": "address",
          "name": "_baseToken",
          "type": "address"
        },
        {
          "internalType": "address",
          "name": "_coin",
          "type": "address"
        },
        {
          "internalType": "uint256",
          "name": "_ratio",
          "type": "uint256"
        }
      ],
      "name": "setParams",
      "outputs": [],
      "stateMutability": "nonpayable",
      "type": "function"
    },
    {
      "inputs": [
        {
          "internalType": "address",
          "name": "newOwner",
          "type": "address"
        }
      ],
      "name": "transferOwnership",
      "outputs": [],
      "stateMutability": "nonpayable",
      "type": "function"
    },
    {
      "inputs": [
        {
          "internalType": "address",
          "name": "_token",
          "type": "address"
        }
      ],
      "name": "withdraw",
      "outputs": [],
      "stateMutability": "nonpayable",
      "type": "function"
    }
  ],
  "bytecode": "0x608060405234801561001057600080fd5b50604051610c1f380380610c1f83398101604081905261002f916100da565b6100383361006e565b602a600155600380546001600160a01b039384166001600160a01b0319918216179091556002805492909316911617905561010c565b600080546001600160a01b038381166001600160a01b0319831681178455604051919092169283917f8be0079c531659141344cd1fd0a4f28419497f9722a3daafe3b4186f6b6457e09190a35050565b80516001600160a01b03811681146100d557600080fd5b919050565b600080604083850312156100ec578182fd5b6100f5836100be565b9150610103602084016100be565b90509250929050565b610b048061011b6000396000f3fe608060405234801561001057600080fd5b50600436106100935760003560e01c806371ca337d1161006657806371ca337d146100f85780638da5cb5b1461010f578063c55dae6314610120578063d96a094a14610133578063f2fde38b1461014657600080fd5b806311df999514610098578063509db2f6146100c857806351cff8d9146100dd578063715018a6146100f0575b600080fd5b6002546100ab906001600160a01b031681565b6040516001600160a01b0390911681526020015b60405180910390f35b6100db6100d63660046108c8565b610159565b005b6100db6100eb3660046108a7565b6101c1565b6100db61030d565b61010160015481565b6040519081526020016100bf565b6000546001600160a01b03166100ab565b6003546100ab906001600160a01b031681565b6100db610141366004610923565b610343565b6100db6101543660046108a7565b6107a0565b6000546001600160a01b0316331461018c5760405162461bcd60e51b815260040161018390610974565b60405180910390fd5b600380546001600160a01b039485166001600160a01b0319918216179091556002805493909416921691909117909155600155565b6000546001600160a01b031633146101eb5760405162461bcd60e51b815260040161018390610974565b6040516370a0823160e01b81523060048201526000906001600160a01b038316906370a082319060240160206040518083038186803b15801561022d57600080fd5b505afa158015610241573d6000803e3d6000fd5b505050506040513d601f19601f82011682018060405250810190610265919061093b565b9050816001600160a01b031663a9059cbb6102886000546001600160a01b031690565b6040516001600160e01b031960e084901b1681526001600160a01b03909116600482015260248101849052604401602060405180830381600087803b1580156102d057600080fd5b505af11580156102e4573d6000803e3d6000fd5b505050506040513d601f19601f820116820180604052508101906103089190610903565b505050565b6000546001600160a01b031633146103375760405162461bcd60e51b815260040161018390610974565b610341600061083b565b565b33321461037b5760405162461bcd60e51b81526004016101839060208082526004908201526321454f4160e01b604082015260600190565b60006001548261038b9190610a99565b6002546040516370a0823160e01b81523060048201529192506000916001600160a01b03909116906370a082319060240160206040518083038186803b1580156103d457600080fd5b505afa1580156103e8573d6000803e3d6000fd5b505050506040513d601f19601f8201168201806040525081019061040c919061093b565b6003546040516370a0823160e01b81523360048201529192506000916001600160a01b03909116906370a082319060240160206040518083038186803b15801561045557600080fd5b505afa158015610469573d6000803e3d6000fd5b505050506040513d601f19601f8201168201806040525081019061048d919061093b565b90508282116104de5760405162461bcd60e51b815260206004820152601e60248201527f436f6e7472616374206f6e6520616d6f756e74206e6f7420656e6f75676800006044820152606401610183565b83811161052d5760405162461bcd60e51b815260206004820152601b60248201527f55736572207573647420616d6f756e74206e6f7420656e6f75676800000000006044820152606401610183565b6003546040805163313ce56760e01b815290516001600160a01b03909216916323b872dd9133913091859163313ce56791600480820192602092909190829003018186803b15801561057e57600080fd5b505afa158015610592573d6000803e3d6000fd5b505050506040513d601f19601f820116820180604052508101906105b69190610953565b6105c190600a6109ec565b6105cb9089610a99565b6040516001600160e01b031960e086901b1681526001600160a01b0393841660048201529290911660248301526044820152606401602060405180830381600087803b15801561061a57600080fd5b505af115801561062e573d6000803e3d6000fd5b505050506040513d601f19601f820116820180604052508101906106529190610903565b506002546040805163313ce56760e01b815290516001600160a01b039092169163a9059cbb913391849163313ce567916004808301926020929190829003018186803b1580156106a157600080fd5b505afa1580156106b5573d6000803e3d6000fd5b505050506040513d601f19601f820116820180604052508101906106d99190610953565b6106e490600a6109ec565b6106ee9087610a99565b6040516001600160e01b031960e085901b1681526001600160a01b0390921660048301526024820152604401602060405180830381600087803b15801561073457600080fd5b505af1158015610748573d6000803e3d6000fd5b505050506040513d601f19601f8201168201806040525081019061076c9190610903565b50604051849033907fe3d4187f6ca4248660cc0ac8b8056515bac4a8132be2eca31d6d0cc170722a7e90600090a350505050565b6000546001600160a01b031633146107ca5760405162461bcd60e51b815260040161018390610974565b6001600160a01b03811661082f5760405162461bcd60e51b815260206004820152602660248201527f4f776e61626c653a206e6577206f776e657220697320746865207a65726f206160448201526564647265737360d01b6064820152608401610183565b6108388161083b565b50565b600080546001600160a01b038381166001600160a01b0319831681178455604051919092169283917f8be0079c531659141344cd1fd0a4f28419497f9722a3daafe3b4186f6b6457e09190a35050565b80356001600160a01b03811681146108a257600080fd5b919050565b6000602082840312156108b8578081fd5b6108c18261088b565b9392505050565b6000806000606084860312156108dc578182fd5b6108e58461088b565b92506108f36020850161088b565b9150604084013590509250925092565b600060208284031215610914578081fd5b815180151581146108c1578182fd5b600060208284031215610934578081fd5b5035919050565b60006020828403121561094c578081fd5b5051919050565b600060208284031215610964578081fd5b815160ff811681146108c1578182fd5b6020808252818101527f4f776e61626c653a2063616c6c6572206973206e6f7420746865206f776e6572604082015260600190565b600181815b808511156109e45781600019048211156109ca576109ca610ab8565b808516156109d757918102915b93841c93908002906109ae565b509250929050565b60006108c160ff841683600082610a0557506001610a93565b81610a1257506000610a93565b8160018114610a285760028114610a3257610a4e565b6001915050610a93565b60ff841115610a4357610a43610ab8565b50506001821b610a93565b5060208310610133831016604e8410600b8410161715610a71575081810a610a93565b610a7b83836109a9565b8060001904821115610a8f57610a8f610ab8565b0290505b92915050565b6000816000190483118215151615610ab357610ab3610ab8565b500290565b634e487b7160e01b600052601160045260246000fdfea264697066735822122091fa63b645135637461b9adc9e307e733ca6e33368b1af7e6e10ca47a09c850064736f6c63430008040033",
  "linkReferences": {},
  "deployedLinkReferences": {}
}