{
  "_format": "hh-sol-artifact-1",
  "contractName": "ONESale",
  "sourceName": "contracts/IDO.sol",
  "abi": [
    {
      "inputs": [],
      "stateMutability": "nonpayable",
      "type": "constructor"
    },
    {
      "anonymous": false,
      "inputs": [],
      "name": "Claim",
      "type": "event"
    },
    {
      "anonymous": false,
      "inputs": [],
      "name": "Deposit",
      "type": "event"
    },
    {
      "inputs": [],
      "name": "MAX_BY_MINT",
      "outputs": [
        {
          "internalType": "uint256",
          "name": "",
          "type": "uint256"
        }
      ],
      "stateMutability": "view",
      "type": "function"
    },
    {
      "inputs": [],
      "name": "PRICE",
      "outputs": [
        {
          "internalType": "uint256",
          "name": "",
          "type": "uint256"
        }
      ],
      "stateMutability": "view",
      "type": "function"
    },
    {
      "inputs": [],
      "name": "baseToken",
      "outputs": [
        {
          "internalType": "address",
          "name": "",
          "type": "address"
        }
      ],
      "stateMutability": "view",
      "type": "function"
    },
    {
      "inputs": [
        {
          "internalType": "uint256",
          "name": "_amount",
          "type": "uint256"
        }
      ],
      "name": "buy",
      "outputs": [],
      "stateMutability": "nonpayable",
      "type": "function"
    },
    {
      "inputs": [
        {
          "internalType": "uint256",
          "name": "_usdt_amount",
          "type": "uint256"
        }
      ],
      "name": "buy_direct",
      "outputs": [],
      "stateMutability": "nonpayable",
      "type": "function"
    },
    {
      "inputs": [],
      "name": "claim",
      "outputs": [],
      "stateMutability": "nonpayable",
      "type": "function"
    },
    {
      "inputs": [
        {
          "internalType": "address",
          "name": "",
          "type": "address"
        }
      ],
      "name": "claimed",
      "outputs": [
        {
          "internalType": "bool",
          "name": "",
          "type": "bool"
        }
      ],
      "stateMutability": "view",
      "type": "function"
    },
    {
      "inputs": [],
      "name": "deposite",
      "outputs": [],
      "stateMutability": "nonpayable",
      "type": "function"
    },
    {
      "inputs": [],
      "name": "dev",
      "outputs": [
        {
          "internalType": "address",
          "name": "",
          "type": "address"
        }
      ],
      "stateMutability": "view",
      "type": "function"
    },
    {
      "inputs": [],
      "name": "farmingToken",
      "outputs": [
        {
          "internalType": "address",
          "name": "",
          "type": "address"
        }
      ],
      "stateMutability": "view",
      "type": "function"
    },
    {
      "inputs": [],
      "name": "freeze_period",
      "outputs": [
        {
          "internalType": "uint256",
          "name": "",
          "type": "uint256"
        }
      ],
      "stateMutability": "view",
      "type": "function"
    },
    {
      "inputs": [],
      "name": "getCurrentTimestamp",
      "outputs": [
        {
          "internalType": "uint256",
          "name": "",
          "type": "uint256"
        }
      ],
      "stateMutability": "view",
      "type": "function"
    },
    {
      "inputs": [],
      "name": "getFreezeToken",
      "outputs": [
        {
          "internalType": "uint256",
          "name": "",
          "type": "uint256"
        }
      ],
      "stateMutability": "view",
      "type": "function"
    },
    {
      "inputs": [],
      "name": "getReleaseTime",
      "outputs": [
        {
          "internalType": "uint256",
          "name": "",
          "type": "uint256"
        }
      ],
      "stateMutability": "view",
      "type": "function"
    },
    {
      "inputs": [
        {
          "internalType": "address",
          "name": "",
          "type": "address"
        }
      ],
      "name": "investor",
      "outputs": [
        {
          "internalType": "bool",
          "name": "",
          "type": "bool"
        }
      ],
      "stateMutability": "view",
      "type": "function"
    },
    {
      "inputs": [],
      "name": "left_elements",
      "outputs": [
        {
          "internalType": "uint256",
          "name": "",
          "type": "uint256"
        }
      ],
      "stateMutability": "view",
      "type": "function"
    },
    {
      "inputs": [],
      "name": "ratio",
      "outputs": [
        {
          "internalType": "uint256",
          "name": "",
          "type": "uint256"
        }
      ],
      "stateMutability": "view",
      "type": "function"
    },
    {
      "inputs": [],
      "name": "release",
      "outputs": [],
      "stateMutability": "nonpayable",
      "type": "function"
    },
    {
      "inputs": [
        {
          "internalType": "address",
          "name": "_baseToken",
          "type": "address"
        },
        {
          "internalType": "address",
          "name": "_farmingToken",
          "type": "address"
        },
        {
          "internalType": "uint256",
          "name": "_price",
          "type": "uint256"
        },
        {
          "internalType": "uint256",
          "name": "_buy_amount",
          "type": "uint256"
        },
        {
          "internalType": "uint256",
          "name": "_farmingToken_amount",
          "type": "uint256"
        },
        {
          "internalType": "uint256",
          "name": "_freeze_period",
          "type": "uint256"
        }
      ],
      "name": "setParams",
      "outputs": [],
      "stateMutability": "nonpayable",
      "type": "function"
    },
    {
      "inputs": [
        {
          "internalType": "uint256",
          "name": "_ratio",
          "type": "uint256"
        }
      ],
      "name": "set_ratio",
      "outputs": [],
      "stateMutability": "nonpayable",
      "type": "function"
    },
    {
      "inputs": [
        {
          "internalType": "address",
          "name": "",
          "type": "address"
        }
      ],
      "name": "vest",
      "outputs": [
        {
          "internalType": "uint256",
          "name": "amount",
          "type": "uint256"
        },
        {
          "internalType": "uint256",
          "name": "releasetime",
          "type": "uint256"
        },
        {
          "internalType": "bool",
          "name": "isValid",
          "type": "bool"
        }
      ],
      "stateMutability": "view",
      "type": "function"
    },
    {
      "inputs": [
        {
          "internalType": "address",
          "name": "_token",
          "type": "address"
        }
      ],
      "name": "withdraw",
      "outputs": [],
      "stateMutability": "nonpayable",
      "type": "function"
    }
  ],
  "bytecode": "0x608060405234801561001057600080fd5b50600a80546001600160a01b03191633179055611416806100326000396000f3fe608060405234801561001057600080fd5b50600436106101425760003560e01c80638d859f3e116100b8578063ad24dce71161007c578063ad24dce7146102b1578063c230a288146102b9578063c55dae63146102c1578063c884ef83146102c9578063d96a094a146102ef578063f3c5f51e1461030c57610142565b80638d859f3e1461025857806391cca3db14610260578063946c41da14610284578063a12029d2146102a1578063a50ec326146102a957610142565b806353462d6b1161010a57806353462d6b146102135780636c9230db1461021b57806371ca337d146102235780637f0ea5d01461022b57806386d1a69f146102485780638ad5de281461025057610142565b80631b1cd4ff146101475780632dec9d1c146101815780634e71d92d1461019b5780635102d810146101a557806351cff8d9146101ed575b600080fd5b61016d6004803603602081101561015d57600080fd5b50356001600160a01b0316610352565b604080519115158252519081900360200190f35b610189610367565b60408051918252519081900360200190f35b6101a361036d565b005b6101a3600480360360c08110156101bb57600080fd5b506001600160a01b03813581169160208101359091169060408101359060608101359060808101359060a0013561058f565b6101a36004803603602081101561020357600080fd5b50356001600160a01b031661062d565b610189610779565b61018961078f565b6101896107df565b6101a36004803603602081101561024157600080fd5b50356107e5565b6101a3610bb5565b610189610d7b565b610189610d81565b610268610d87565b604080516001600160a01b039092168252519081900360200190f35b6101a36004803603602081101561029a57600080fd5b5035610d96565b610189610de3565b6101a3610df6565b610268611025565b610189611034565b61026861103a565b61016d600480360360208110156102df57600080fd5b50356001600160a01b0316611049565b6101a36004803603602081101561030557600080fd5b503561105e565b6103326004803603602081101561032257600080fd5b50356001600160a01b03166112d1565b604080519384526020840192909252151582820152519081900360600190f35b60056020526000908152604090205460ff1681565b60025481565b3332146103aa576040805162461bcd60e51b8152602060048083019190915260248201526321454f4160e01b604482015290519081900360640190fd5b3360009081526005602052604090205460ff166103fd576040805162461bcd60e51b815260206004820152600c60248201526b3737ba1034b73b32b9ba37b960a11b604482015290519081900360640190fd5b3360009081526006602052604090205460ff161561044c576040805162461bcd60e51b815260206004820152600760248201526618db185a5b595960ca1b604482015290519081900360640190fd5b33600081815260066020908152604091829020805460ff19166001179055600954825163313ce56760e01b815292516001600160a01b03919091169363a9059cbb939092859263313ce567926004808201939291829003018186803b1580156104b457600080fd5b505afa1580156104c8573d6000803e3d6000fd5b505050506040513d60208110156104de57600080fd5b5051600154604080516001600160e01b031960e087901b1681526001600160a01b03909416600485015260ff909216600a0a0260248301525160448083019260209291908290030181600087803b15801561053857600080fd5b505af115801561054c573d6000803e3d6000fd5b505050506040513d602081101561056257600080fd5b50506040517f3158952e7c791deb52750003dbcb0fb942106f2bcd1005fb946a83cd6646fdc490600090a1565b600a546001600160a01b031633146105d7576040805162461bcd60e51b8152602060048083019190915260248201526310b232bb60e11b604482015290519081900360640190fd5b600880546001600160a01b038089166001600160a01b03199283161790925560098054928816929091169190911790556000849055600183905561061b82846112f5565b60025560035550506000600455505050565b600a546001600160a01b03163314610675576040805162461bcd60e51b8152602060048083019190915260248201526310b232bb60e11b604482015290519081900360640190fd5b6000816001600160a01b03166370a08231306040518263ffffffff1660e01b815260040180826001600160a01b0316815260200191505060206040518083038186803b1580156106c457600080fd5b505afa1580156106d8573d6000803e3d6000fd5b505050506040513d60208110156106ee57600080fd5b5051600a546040805163a9059cbb60e01b81526001600160a01b0392831660048201526024810184905290519293509084169163a9059cbb916044808201926020929091908290030181600087803b15801561074957600080fd5b505af115801561075d573d6000803e3d6000fd5b505050506040513d602081101561077357600080fd5b50505050565b3360009081526007602052604090206001015490565b600a546000906001600160a01b031633146107da576040805162461bcd60e51b8152602060048083019190915260248201526310b232bb60e11b604482015290519081900360640190fd5b504290565b60045481565b333214610822576040805162461bcd60e51b8152602060048083019190915260248201526321454f4160e01b604482015290519081900360640190fd5b60048054600954604080516370a0823160e01b8152309481019490945251918402926000926001600160a01b03909216916370a0823191602480820192602092909190829003018186803b15801561087957600080fd5b505afa15801561088d573d6000803e3d6000fd5b505050506040513d60208110156108a357600080fd5b5051600854604080516370a0823160e01b815233600482015290519293506000926001600160a01b03909216916370a0823191602480820192602092909190829003018186803b1580156108f657600080fd5b505afa15801561090a573d6000803e3d6000fd5b505050506040513d602081101561092057600080fd5b50519050828211610968576040805162461bcd60e51b815260206004820152600d60248201526c185b5bdd5b9d08195e18d95959609a1b604482015290519081900360640190fd5b8381116109ac576040805162461bcd60e51b815260206004820152600d60248201526c185b5bdd5b9d08195e18d95959609a1b604482015290519081900360640190fd5b6008546040805163313ce56760e01b815290516001600160a01b03909216916323b872dd9133913091859163313ce56791600480820192602092909190829003018186803b1580156109fd57600080fd5b505afa158015610a11573d6000803e3d6000fd5b505050506040513d6020811015610a2757600080fd5b5051604080516001600160e01b031960e087901b1681526001600160a01b03948516600482015292909316602483015260ff16600a0a88026044820152905160648083019260209291908290030181600087803b158015610a8757600080fd5b505af1158015610a9b573d6000803e3d6000fd5b505050506040513d6020811015610ab157600080fd5b50506009546040805163313ce56760e01b815290516001600160a01b039092169163a9059cbb913391849163313ce567916004808301926020929190829003018186803b158015610b0157600080fd5b505afa158015610b15573d6000803e3d6000fd5b505050506040513d6020811015610b2b57600080fd5b5051604080516001600160e01b031960e086901b1681526001600160a01b03909316600484015260ff909116600a0a870260248301525160448083019260209291908290030181600087803b158015610b8357600080fd5b505af1158015610b97573d6000803e3d6000fd5b505050506040513d6020811015610bad57600080fd5b505050505050565b33600090815260076020526040902060010154421015610c0f576040805162461bcd60e51b815260206004820152601060248201526f6e6f742072656c656173652074696d6560801b604482015290519081900360640190fd5b33600090815260076020526040902054610c61576040805162461bcd60e51b815260206004820152600e60248201526d616d6f756e74206973207a65726f60901b604482015290519081900360640190fd5b3360008181526007602090815260408083208054848255600190910193909355600954815163313ce56760e01b8152915193946001600160a01b039091169363a9059cbb939192859263313ce56792600480840193829003018186803b158015610cca57600080fd5b505afa158015610cde573d6000803e3d6000fd5b505050506040513d6020811015610cf457600080fd5b5051604080516001600160e01b031960e086901b1681526001600160a01b03909316600484015260ff909116600a0a850260248301525160448083019260209291908290030181600087803b158015610d4c57600080fd5b505af1158015610d60573d6000803e3d6000fd5b505050506040513d6020811015610d7657600080fd5b505050565b60015481565b60005481565b600a546001600160a01b031681565b600a546001600160a01b03163314610dde576040805162461bcd60e51b8152602060048083019190915260248201526310b232bb60e11b604482015290519081900360640190fd5b600455565b3360009081526007602052604090205490565b333214610e33576040805162461bcd60e51b8152602060048083019190915260248201526321454f4160e01b604482015290519081900360640190fd5b600060025411610e75576040805162461bcd60e51b81526020600482015260086024820152671cd85b19481bdd5d60c21b604482015290519081900360640190fd5b3360009081526005602052604090205460ff1615610ec6576040805162461bcd60e51b815260206004820152600960248201526819195c1bdcda5d195960ba1b604482015290519081900360640190fd5b6008546040805163313ce56760e01b815290516001600160a01b03909216916323b872dd9133913091859163313ce56791600480820192602092909190829003018186803b158015610f1757600080fd5b505afa158015610f2b573d6000803e3d6000fd5b505050506040513d6020811015610f4157600080fd5b505160008054600154604080516001600160e01b031960e08a901b1681526001600160a01b0397881660048201529590961660248601520260ff909216600a0a919091026044830152915160648083019360209383900390910190829087803b158015610fad57600080fd5b505af1158015610fc1573d6000803e3d6000fd5b505050506040513d6020811015610fd757600080fd5b505033600090815260056020526040808220805460ff1916600117905560028054600019019055517fed21248cb703b524cc0029bb8669df941baca560163a3bc6ad184e7e9c2680709190a1565b6009546001600160a01b031681565b60035481565b6008546001600160a01b031681565b60066020526000908152604090205460ff1681565b33321461109b576040805162461bcd60e51b8152602060048083019190915260248201526321454f4160e01b604482015290519081900360640190fd5b600954604080516370a0823160e01b815230600482015290516000926001600160a01b0316916370a08231916024808301926020929190829003018186803b1580156110e657600080fd5b505afa1580156110fa573d6000803e3d6000fd5b505050506040513d602081101561111057600080fd5b50519050818111611158576040805162461bcd60e51b815260206004820152600d60248201526c185b5bdd5b9d08195e18d95959609a1b604482015290519081900360640190fd5b6008546040805163313ce56760e01b815290516001600160a01b03909216916323b872dd9133913091859163313ce56791600480820192602092909190829003018186803b1580156111a957600080fd5b505afa1580156111bd573d6000803e3d6000fd5b505050506040513d60208110156111d357600080fd5b505160008054604080516001600160e01b031960e089901b1681526001600160a01b039687166004820152949095166024850152880260ff909216600a0a919091026044830152915160648083019360209383900390910190829087803b15801561123d57600080fd5b505af1158015611251573d6000803e3d6000fd5b505050506040513d602081101561126757600080fd5b50503360009081526007602052604090206002015460ff161561129e573360009081526007602052604090208054830190556112b1565b3360009081526007602052604090208290555b505060035433600090815260076020526040902042909101600190910155565b60076020526000908152604090208054600182015460029092015490919060ff1683565b600061133783836040518060400160405280601a81526020017f536166654d6174683a206469766973696f6e206279207a65726f00000000000081525061133e565b9392505050565b600081836113ca5760405162461bcd60e51b81526004018080602001828103825283818151815260200191508051906020019080838360005b8381101561138f578181015183820152602001611377565b50505050905090810190601f1680156113bc5780820380516001836020036101000a031916815260200191505b509250505060405180910390fd5b5060008385816113d657fe5b049594505050505056fea264697066735822122032c924ca9b49d9fbe2c8673a34423ecd4826488d7163be2479a32f24f841f53f64736f6c63430007050033",
  "linkReferences": {},
  "deployedLinkReferences": {}
}